{
  "abi": [
    {
      "inputs": [],
      "name": "IncorrectCheckpoint",
      "type": "error"
    },
    {
      "inputs": [
        {
          "internalType": "uint64",
          "name": "cumulativePower",
          "type": "uint64"
        },
        {
          "internalType": "uint64",
          "name": "powerThreshold",
          "type": "uint64"
        }
      ],
      "name": "InsufficientPower",
      "type": "error"
    },
    {
      "inputs": [],
      "name": "InvalidEcdsaSignature",
      "type": "error"
    },
    {
      "inputs": [],
      "name": "InvalidS",
      "type": "error"
    },
    {
      "inputs": [],
      "name": "InvalidSignature",
      "type": "error"
    },
    {
      "inputs": [],
      "name": "InvalidSignatureLength",
      "type": "error"
    },
    {
      "inputs": [],
      "name": "MalformedCurrentValidatorSet",
      "type": "error"
    },
    {
      "anonymous": false,
      "inputs": [
        {
          "indexed": false,
          "internalType": "address",
          "name": "previousAdmin",
          "type": "address"
        },
        {
          "indexed": false,
          "internalType": "address",
          "name": "newAdmin",
          "type": "address"
        }
      ],
      "name": "AdminChanged",
      "type": "event"
    },
    {
      "anonymous": false,
      "inputs": [
        {
          "indexed": true,
          "internalType": "address",
          "name": "beacon",
          "type": "address"
        }
      ],
      "name": "BeaconUpgraded",
      "type": "event"
    },
    {
      "anonymous": false,
      "inputs": [
        {
          "indexed": true,
          "internalType": "uint256",
          "name": "eventNonce",
          "type": "uint256"
        },
        {
          "indexed": true,
          "internalType": "uint256",
          "name": "requestIdentifier",
          "type": "uint256"
        },
        {
          "indexed": false,
          "internalType": "string",
          "name": "relayerRouterAddress",
          "type": "string"
        },
        {
          "indexed": false,
          "internalType": "string",
          "name": "chainId",
          "type": "string"
        },
        {
          "indexed": false,
          "internalType": "bytes",
          "name": "data",
          "type": "bytes"
        },
        {
          "indexed": false,
          "internalType": "bool",
          "name": "success",
          "type": "bool"
        }
      ],
      "name": "IAckEvent",
      "type": "event"
    },
    {
      "anonymous": false,
      "inputs": [
        {
          "indexed": true,
          "internalType": "uint256",
          "name": "requestIdentifier",
          "type": "uint256"
        },
        {
          "indexed": true,
          "internalType": "uint256",
          "name": "eventNonce",
          "type": "uint256"
        },
        {
          "indexed": false,
          "internalType": "string",
          "name": "srcChainId",
          "type": "string"
        },
        {
          "indexed": false,
          "internalType": "string",
          "name": "destChainId",
          "type": "string"
        },
        {
          "indexed": false,
          "internalType": "string",
          "name": "relayerRouterAddress",
          "type": "string"
        },
        {
          "indexed": false,
          "internalType": "string",
          "name": "requestSender",
          "type": "string"
        },
        {
          "indexed": false,
          "internalType": "bytes",
          "name": "execData",
          "type": "bytes"
        },
        {
          "indexed": false,
          "internalType": "bool",
          "name": "execStatus",
          "type": "bool"
        }
      ],
      "name": "IReceiveEvent",
      "type": "event"
    },
    {
      "anonymous": false,
      "inputs": [
        {
          "indexed": false,
          "internalType": "uint256",
          "name": "version",
          "type": "uint256"
        },
        {
          "indexed": false,
          "internalType": "uint256",
          "name": "routeAmount",
          "type": "uint256"
        },
        {
          "indexed": true,
          "internalType": "uint256",
          "name": "eventNonce",
          "type": "uint256"
        },
        {
          "indexed": false,
          "internalType": "address",
          "name": "requestSender",
          "type": "address"
        },
        {
          "indexed": false,
          "internalType": "string",
          "name": "srcChainId",
          "type": "string"
        },
        {
          "indexed": false,
          "internalType": "string",
          "name": "destChainId",
          "type": "string"
        },
        {
          "indexed": false,
          "internalType": "string",
          "name": "routeRecipient",
          "type": "string"
        },
        {
          "indexed": false,
          "internalType": "bytes",
          "name": "requestMetadata",
          "type": "bytes"
        },
        {
          "indexed": false,
          "internalType": "bytes",
          "name": "requestPacket",
          "type": "bytes"
        }
      ],
      "name": "ISendEvent",
      "type": "event"
    },
    {
      "anonymous": false,
      "inputs": [
        {
          "indexed": false,
          "internalType": "uint8",
          "name": "version",
          "type": "uint8"
        }
      ],
      "name": "Initialized",
      "type": "event"
    },
    {
      "anonymous": false,
      "inputs": [
        {
          "indexed": false,
          "internalType": "address",
          "name": "account",
          "type": "address"
        }
      ],
      "name": "Paused",
      "type": "event"
    },
    {
      "anonymous": false,
      "inputs": [
        {
          "indexed": true,
          "internalType": "bytes32",
          "name": "role",
          "type": "bytes32"
        },
        {
          "indexed": true,
          "internalType": "bytes32",
          "name": "previousAdminRole",
          "type": "bytes32"
        },
        {
          "indexed": true,
          "internalType": "bytes32",
          "name": "newAdminRole",
          "type": "bytes32"
        }
      ],
      "name": "RoleAdminChanged",
      "type": "event"
    },
    {
      "anonymous": false,
      "inputs": [
        {
          "indexed": true,
          "internalType": "bytes32",
          "name": "role",
          "type": "bytes32"
        },
        {
          "indexed": true,
          "internalType": "address",
          "name": "account",
          "type": "address"
        },
        {
          "indexed": true,
          "internalType": "address",
          "name": "sender",
          "type": "address"
        }
      ],
      "name": "RoleGranted",
      "type": "event"
    },
    {
      "anonymous": false,
      "inputs": [
        {
          "indexed": true,
          "internalType": "bytes32",
          "name": "role",
          "type": "bytes32"
        },
        {
          "indexed": true,
          "internalType": "address",
          "name": "account",
          "type": "address"
        },
        {
          "indexed": true,
          "internalType": "address",
          "name": "sender",
          "type": "address"
        }
      ],
      "name": "RoleRevoked",
      "type": "event"
    },
    {
      "anonymous": false,
      "inputs": [
        {
          "indexed": true,
          "internalType": "uint256",
          "name": "eventNonce",
          "type": "uint256"
        },
        {
          "indexed": false,
          "internalType": "address",
          "name": "dappAddress",
          "type": "address"
        },
        {
          "indexed": false,
          "internalType": "string",
          "name": "chainId",
          "type": "string"
        },
        {
          "indexed": false,
          "internalType": "string",
          "name": "feePayerAddress",
          "type": "string"
        }
      ],
      "name": "SetDappMetadataEvent",
      "type": "event"
    },
    {
      "anonymous": false,
      "inputs": [
        {
          "indexed": false,
          "internalType": "address",
          "name": "vaultAddress",
          "type": "address"
        }
      ],
      "name": "SetVaultEvent",
      "type": "event"
    },
    {
      "anonymous": false,
      "inputs": [
        {
          "indexed": false,
          "internalType": "address",
          "name": "account",
          "type": "address"
        }
      ],
      "name": "Unpaused",
      "type": "event"
    },
    {
      "anonymous": false,
      "inputs": [
        {
          "indexed": true,
          "internalType": "address",
          "name": "implementation",
          "type": "address"
        }
      ],
      "name": "Upgraded",
      "type": "event"
    },
    {
      "anonymous": false,
      "inputs": [
        {
          "indexed": true,
          "internalType": "uint256",
          "name": "_newValsetNonce",
          "type": "uint256"
        },
        {
          "indexed": true,
          "internalType": "uint256",
          "name": "_eventNonce",
          "type": "uint256"
        },
        {
          "indexed": false,
          "internalType": "string",
          "name": "srcChainId",
          "type": "string"
        },
        {
          "indexed": false,
          "internalType": "address[]",
          "name": "_validators",
          "type": "address[]"
        },
        {
          "indexed": false,
          "internalType": "uint64[]",
          "name": "_powers",
          "type": "uint64[]"
        }
      ],
      "name": "ValsetUpdatedEvent",
      "type": "event"
    },
    {
      "inputs": [],
      "name": "DEFAULT_ADMIN_ROLE",
      "outputs": [
        {
          "internalType": "bytes32",
          "name": "",
          "type": "bytes32"
        }
      ],
      "stateMutability": "view",
      "type": "function"
    },
    {
      "inputs": [
        {
          "internalType": "uint256",
          "name": "",
          "type": "uint256"
        }
      ],
      "name": "ackNonceExecuted",
      "outputs": [
        {
          "internalType": "bool",
          "name": "",
          "type": "bool"
        }
      ],
      "stateMutability": "view",
      "type": "function"
    },
    {
      "inputs": [],
      "name": "chainId",
      "outputs": [
        {
          "internalType": "string",
          "name": "",
          "type": "string"
        }
      ],
      "stateMutability": "view",
      "type": "function"
    },
    {
      "inputs": [],
      "name": "currentVersion",
      "outputs": [
        {
          "internalType": "uint256",
          "name": "",
          "type": "uint256"
        }
      ],
      "stateMutability": "view",
      "type": "function"
    },
    {
      "inputs": [],
      "name": "eventNonce",
      "outputs": [
        {
          "internalType": "uint256",
          "name": "",
          "type": "uint256"
        }
      ],
      "stateMutability": "view",
      "type": "function"
    },
    {
      "inputs": [
        {
          "internalType": "bytes32",
          "name": "role",
          "type": "bytes32"
        }
      ],
      "name": "getRoleAdmin",
      "outputs": [
        {
          "internalType": "bytes32",
          "name": "",
          "type": "bytes32"
        }
      ],
      "stateMutability": "view",
      "type": "function"
    },
    {
      "inputs": [
        {
          "internalType": "bytes32",
          "name": "role",
          "type": "bytes32"
        },
        {
          "internalType": "address",
          "name": "account",
          "type": "address"
        }
      ],
      "name": "grantRole",
      "outputs": [],
      "stateMutability": "nonpayable",
      "type": "function"
    },
    {
      "inputs": [
        {
          "internalType": "bytes32",
          "name": "role",
          "type": "bytes32"
        },
        {
          "internalType": "address",
          "name": "account",
          "type": "address"
        }
      ],
      "name": "hasRole",
      "outputs": [
        {
          "internalType": "bool",
          "name": "",
          "type": "bool"
        }
      ],
      "stateMutability": "view",
      "type": "function"
    },
    {
      "inputs": [
        {
          "components": [
            {
              "internalType": "address[]",
              "name": "validators",
              "type": "address[]"
            },
            {
              "internalType": "uint64[]",
              "name": "powers",
              "type": "uint64[]"
            },
            {
              "internalType": "uint256",
              "name": "valsetNonce",
              "type": "uint256"
            }
          ],
          "internalType": "struct Utils1.ValsetArgs",
          "name": "_currentValset",
          "type": "tuple"
        },
        {
          "internalType": "bytes[]",
          "name": "_sigs",
          "type": "bytes[]"
        },
        {
          "components": [
            {
              "internalType": "uint256",
              "name": "requestIdentifier",
              "type": "uint256"
            },
            {
              "internalType": "uint256",
              "name": "ackRequestIdentifier",
              "type": "uint256"
            },
            {
              "internalType": "string",
              "name": "destChainId",
              "type": "string"
            },
            {
              "internalType": "address",
              "name": "requestSender",
              "type": "address"
            },
            {
              "internalType": "bytes",
              "name": "execData",
              "type": "bytes"
            },
            {
              "internalType": "bool",
              "name": "execFlag",
              "type": "bool"
            }
          ],
          "internalType": "struct Utils1.CrossChainAckPayload",
          "name": "crossChainAckPayload",
          "type": "tuple"
        },
        {
          "internalType": "string",
          "name": "relayerRouterAddress",
          "type": "string"
        }
      ],
      "name": "iAck",
      "outputs": [],
      "stateMutability": "nonpayable",
      "type": "function"
    },
    {
      "inputs": [
        {
          "components": [
            {
              "internalType": "address[]",
              "name": "validators",
              "type": "address[]"
            },
            {
              "internalType": "uint64[]",
              "name": "powers",
              "type": "uint64[]"
            },
            {
              "internalType": "uint256",
              "name": "valsetNonce",
              "type": "uint256"
            }
          ],
          "internalType": "struct Utils1.ValsetArgs",
          "name": "_currentValset",
          "type": "tuple"
        },
        {
          "internalType": "bytes[]",
          "name": "_sigs",
          "type": "bytes[]"
        },
        {
          "components": [
            {
              "internalType": "uint256",
              "name": "routeAmount",
              "type": "uint256"
            },
            {
              "internalType": "uint256",
              "name": "requestIdentifier",
              "type": "uint256"
            },
            {
              "internalType": "uint256",
              "name": "requestTimestamp",
              "type": "uint256"
            },
            {
              "internalType": "string",
              "name": "srcChainId",
              "type": "string"
            },
            {
              "internalType": "address",
              "name": "routeRecipient",
              "type": "address"
            },
            {
              "internalType": "string",
              "name": "destChainId",
              "type": "string"
            },
            {
              "internalType": "address",
              "name": "asmAddress",
              "type": "address"
            },
            {
              "internalType": "string",
              "name": "requestSender",
              "type": "string"
            },
            {
              "internalType": "address",
              "name": "handlerAddress",
              "type": "address"
            },
            {
              "internalType": "bytes",
              "name": "packet",
              "type": "bytes"
            },
            {
              "internalType": "bool",
              "name": "isReadCall",
              "type": "bool"
            }
          ],
          "internalType": "struct Utils1.RequestPayload",
          "name": "requestPayload",
          "type": "tuple"
        },
        {
          "internalType": "string",
          "name": "relayerRouterAddress",
          "type": "string"
        }
      ],
      "name": "iReceive",
      "outputs": [],
      "stateMutability": "nonpayable",
      "type": "function"
    },
    {
      "inputs": [
        {
          "internalType": "uint256",
          "name": "version",
          "type": "uint256"
        },
        {
          "internalType": "uint256",
          "name": "routeAmount",
          "type": "uint256"
        },
        {
          "internalType": "string",
          "name": "routeRecipient",
          "type": "string"
        },
        {
          "internalType": "string",
          "name": "destChainId",
          "type": "string"
        },
        {
          "internalType": "bytes",
          "name": "requestMetadata",
          "type": "bytes"
        },
        {
          "internalType": "bytes",
          "name": "requestPacket",
          "type": "bytes"
        }
      ],
      "name": "iSend",
      "outputs": [
        {
          "internalType": "uint256",
          "name": "",
          "type": "uint256"
        }
      ],
      "stateMutability": "payable",
      "type": "function"
    },
    {
      "inputs": [],
      "name": "iSendDefaultFee",
      "outputs": [
        {
          "internalType": "uint256",
          "name": "",
          "type": "uint256"
        }
      ],
      "stateMutability": "view",
      "type": "function"
    },
    {
      "inputs": [
        {
          "internalType": "string",
          "name": "_chainId",
          "type": "string"
        },
        {
          "internalType": "address[]",
          "name": "_validators",
          "type": "address[]"
        },
        {
          "internalType": "uint64[]",
          "name": "_powers",
          "type": "uint64[]"
        },
        {
          "internalType": "uint64",
          "name": "valsetNonce",
          "type": "uint64"
        }
      ],
      "name": "initialize",
      "outputs": [],
      "stateMutability": "nonpayable",
      "type": "function"
    },
    {
      "inputs": [
        {
          "internalType": "string",
          "name": "",
          "type": "string"
        },
        {
          "internalType": "uint256",
          "name": "",
          "type": "uint256"
        }
      ],
      "name": "nonceExecuted",
      "outputs": [
        {
          "internalType": "bool",
          "name": "",
          "type": "bool"
        }
      ],
      "stateMutability": "view",
      "type": "function"
    },
    {
      "inputs": [],
      "name": "pause",
      "outputs": [],
      "stateMutability": "nonpayable",
      "type": "function"
    },
    {
      "inputs": [],
      "name": "paused",
      "outputs": [
        {
          "internalType": "bool",
          "name": "",
          "type": "bool"
        }
      ],
      "stateMutability": "view",
      "type": "function"
    },
    {
      "inputs": [],
      "name": "proxiableUUID",
      "outputs": [
        {
          "internalType": "bytes32",
          "name": "",
          "type": "bytes32"
        }
      ],
      "stateMutability": "view",
      "type": "function"
    },
    {
      "inputs": [
        {
          "internalType": "bytes32",
          "name": "role",
          "type": "bytes32"
        },
        {
          "internalType": "address",
          "name": "account",
          "type": "address"
        }
      ],
      "name": "renounceRole",
      "outputs": [],
      "stateMutability": "nonpayable",
      "type": "function"
    },
    {
      "inputs": [
        {
          "internalType": "bytes32",
          "name": "role",
          "type": "bytes32"
        },
        {
          "internalType": "address",
          "name": "account",
          "type": "address"
        }
      ],
      "name": "revokeRole",
      "outputs": [],
      "stateMutability": "nonpayable",
      "type": "function"
    },
    {
      "inputs": [
        {
          "internalType": "uint256",
          "name": "_iSendDefaultFee",
          "type": "uint256"
        }
      ],
      "name": "setBridgeFees",
      "outputs": [],
      "stateMutability": "nonpayable",
      "type": "function"
    },
    {
      "inputs": [
        {
          "internalType": "uint256",
          "name": "newVersion",
          "type": "uint256"
        }
      ],
      "name": "setCurrentVersion",
      "outputs": [],
      "stateMutability": "nonpayable",
      "type": "function"
    },
    {
      "inputs": [
        {
          "internalType": "string",
          "name": "feePayerAddress",
          "type": "string"
        }
      ],
      "name": "setDappMetadata",
      "outputs": [
        {
          "internalType": "uint256",
          "name": "",
          "type": "uint256"
        }
      ],
      "stateMutability": "payable",
      "type": "function"
    },
    {
      "inputs": [
        {
          "internalType": "address",
          "name": "_vaultAddress",
          "type": "address"
        }
      ],
      "name": "setVault",
      "outputs": [],
      "stateMutability": "nonpayable",
      "type": "function"
    },
    {
      "inputs": [],
      "name": "stateLastValsetCheckpoint",
      "outputs": [
        {
          "internalType": "bytes32",
          "name": "",
          "type": "bytes32"
        }
      ],
      "stateMutability": "view",
      "type": "function"
    },
    {
      "inputs": [],
      "name": "stateLastValsetNonce",
      "outputs": [
        {
          "internalType": "uint256",
          "name": "",
          "type": "uint256"
        }
      ],
      "stateMutability": "view",
      "type": "function"
    },
    {
      "inputs": [
        {
          "internalType": "bytes4",
          "name": "interfaceId",
          "type": "bytes4"
        }
      ],
      "name": "supportsInterface",
      "outputs": [
        {
          "internalType": "bool",
          "name": "",
          "type": "bool"
        }
      ],
      "stateMutability": "view",
      "type": "function"
    },
    {
      "inputs": [],
      "name": "unpause",
      "outputs": [],
      "stateMutability": "nonpayable",
      "type": "function"
    },
    {
      "inputs": [
        {
          "components": [
            {
              "internalType": "address[]",
              "name": "validators",
              "type": "address[]"
            },
            {
              "internalType": "uint64[]",
              "name": "powers",
              "type": "uint64[]"
            },
            {
              "internalType": "uint256",
              "name": "valsetNonce",
              "type": "uint256"
            }
          ],
          "internalType": "struct Utils1.ValsetArgs",
          "name": "_newValset",
          "type": "tuple"
        },
        {
          "components": [
            {
              "internalType": "address[]",
              "name": "validators",
              "type": "address[]"
            },
            {
              "internalType": "uint64[]",
              "name": "powers",
              "type": "uint64[]"
            },
            {
              "internalType": "uint256",
              "name": "valsetNonce",
              "type": "uint256"
            }
          ],
          "internalType": "struct Utils1.ValsetArgs",
          "name": "_currentValset",
          "type": "tuple"
        },
        {
          "internalType": "bytes[]",
          "name": "_sigs",
          "type": "bytes[]"
        }
      ],
      "name": "updateValset",
      "outputs": [],
      "stateMutability": "nonpayable",
      "type": "function"
    },
    {
      "inputs": [
        {
          "internalType": "address",
          "name": "newImplementation",
          "type": "address"
        }
      ],
      "name": "upgradeTo",
      "outputs": [],
      "stateMutability": "nonpayable",
      "type": "function"
    },
    {
      "inputs": [
        {
          "internalType": "address",
          "name": "newImplementation",
          "type": "address"
        },
        {
          "internalType": "bytes",
          "name": "data",
          "type": "bytes"
        }
      ],
      "name": "upgradeToAndCall",
      "outputs": [],
      "stateMutability": "payable",
      "type": "function"
    },
    {
      "inputs": [],
      "name": "vault",
      "outputs": [
        {
          "internalType": "contract AssetVault",
          "name": "",
          "type": "address"
        }
      ],
      "stateMutability": "view",
      "type": "function"
    },
    {
      "inputs": [
        {
          "internalType": "address",
          "name": "recipient",
          "type": "address"
        }
      ],
      "name": "withdrawFee",
      "outputs": [],
      "stateMutability": "nonpayable",
      "type": "function"
    },
    {
      "stateMutability": "payable",
      "type": "receive"
    }
  ],
  "bytecode": {
    "object": "0x60a06040523060805234801561001457600080fd5b50608051613d4661004c60003960008181610933015281816109730152818161110e0152818161114e015261147a0152613d466000f3fe6080604052600436106101e75760003560e01c80635c975abb11610102578063a0436a4111610095578063ea76f6d711610064578063ea76f6d71461056c578063ef15cbda1461058c578063f3a0ce411461059f578063fbfa77cf146105bf57600080fd5b8063a0436a41146104ef578063a217fddf14610520578063a707d6b814610535578063d547741f1461054c57600080fd5b80638456cb59116100d15780638456cb591461048157806391d14854146104965780639a8a0592146104b65780639d888e86146104d857600080fd5b80635c975abb146103ea5780636817031b146104025780637a40d0f7146104225780637bed470a1461046e57600080fd5b80633659cfe61161017a57806344bdf5a71161014957806344bdf5a7146103825780634f1ef286146103a257806351b6ac3f146103b557806352d1902d146103d557600080fd5b80633659cfe6146103165780633bcced29146103365780633f4ba83a1461035657806342fb207c1461036b57600080fd5b80632205643a116101b65780632205643a14610286578063248a9ca3146102a65780632f2ff15d146102d657806336568abe146102f657600080fd5b806301ffc9a7146101f357806305cf22fc146102285780631ac3ddeb1461024d5780631c3e6ee61461026f57600080fd5b366101ee57005b600080fd5b3480156101ff57600080fd5b5061021361020e366004612617565b6105f8565b60405190151581526020015b60405180910390f35b34801561023457600080fd5b5061023f6101645481565b60405190815260200161021f565b34801561025957600080fd5b5061026d61026836600461265d565b61062f565b005b34801561027b57600080fd5b5061023f6101625481565b34801561029257600080fd5b5061026d6102a13660046127f4565b610674565b3480156102b257600080fd5b5061023f6102c136600461292e565b60009081526097602052604090206001015490565b3480156102e257600080fd5b5061026d6102f1366004612947565b610886565b34801561030257600080fd5b5061026d610311366004612947565b6108ab565b34801561032257600080fd5b5061026d61033136600461265d565b610929565b34801561034257600080fd5b5061026d610351366004612973565b610a08565b34801561036257600080fd5b5061026d610b78565b34801561037757600080fd5b5061023f6101635481565b34801561038e57600080fd5b5061026d61039d3660046129fd565b610b8b565b61026d6103b0366004612b96565b611104565b3480156103c157600080fd5b5061026d6103d0366004612cf1565b6111d0565b3480156103e157600080fd5b5061023f61146d565b3480156103f657600080fd5b5060335460ff16610213565b34801561040e57600080fd5b5061026d61041d36600461265d565b611520565b34801561042e57600080fd5b5061021361043d366004612d89565b8151602081840181018051610166825292820194820194909420919093529091526000908152604090205460ff1681565b61023f61047c366004612e0e565b6115bd565b34801561048d57600080fd5b5061026d611714565b3480156104a257600080fd5b506102136104b1366004612947565b611727565b3480156104c257600080fd5b506104cb611752565b60405161021f9190612f37565b3480156104e457600080fd5b5061023f6101615481565b3480156104fb57600080fd5b5061021361050a36600461292e565b6101676020526000908152604090205460ff1681565b34801561052c57600080fd5b5061023f600081565b34801561054157600080fd5b5061023f6101655481565b34801561055857600080fd5b5061026d610567366004612947565b6117e1565b34801561057857600080fd5b5061026d61058736600461292e565b611806565b61023f61059a366004612f4a565b611818565b3480156105ab57600080fd5b5061026d6105ba36600461292e565b6118b3565b3480156105cb57600080fd5b50610160546105e0906001600160a01b031681565b6040516001600160a01b03909116815260200161021f565b60006001600160e01b03198216637965db0b60e01b148061062957506301ffc9a760e01b6001600160e01b03198316145b92915050565b600061063a816118c5565b6040516001600160a01b038316904780156108fc02916000818181858888f1935050505015801561066f573d6000803e3d6000fd5b505050565b61067c6118cf565b610684611917565b6020808301516000908152610167909152604090205460ff16156106d55760405162461bcd60e51b815260206004820152600360248201526221981b60e91b60448201526064015b60405180910390fd5b6000636941636b60e01b60001b61015f846000015185602001518660400151876060015188608001518960a0015160405160200161071a98979695949392919061302f565b604051602081830303815290604052905061073786868684611972565b60208084015160009081526101679091526040808220805460ff19166001908117909155610162805490910190819055606080870151875160a089015160808a0151955194969593946001600160a01b039093169363149c425160e31b936107a4939291906024016130a4565b60408051601f198184030181529181526020820180516001600160e01b03166001600160e01b03199094169390931790925290516107e291906130ce565b6000604051808303816000865af19150503d806000811461081f576040519150601f19603f3d011682016040523d82523d6000602084013e610824565b606091505b5087516040519294509092509084907f21a2de7d1ff2cd4fe0ffece047122598d9d5ef15a7aecff28f73c7deae9d64db9061086890899061015f90879089906130ea565b60405180910390a35050505061087f600161012d55565b5050505050565b6000828152609760205260409020600101546108a1816118c5565b61066f83836119cd565b6001600160a01b038116331461091b5760405162461bcd60e51b815260206004820152602f60248201527f416363657373436f6e74726f6c3a2063616e206f6e6c792072656e6f756e636560448201526e103937b632b9903337b91039b2b63360891b60648201526084016106cc565b6109258282611a53565b5050565b6001600160a01b037f00000000000000000000000000000000000000000000000000000000000000001630036109715760405162461bcd60e51b81526004016106cc90613137565b7f00000000000000000000000000000000000000000000000000000000000000006001600160a01b03166109ba600080516020613cca833981519152546001600160a01b031690565b6001600160a01b0316146109e05760405162461bcd60e51b81526004016106cc90613183565b6109e981611aba565b60408051600080825260208201909252610a0591839190611ac5565b50565b610a106118cf565b610a18611917565b60405163113d4ecf60e11b815273__$3a251ea1cc61964ae40baf872424c5ecdd$__9063227a9d9e90610a5190879087906004016132d1565b60006040518083038186803b158015610a6957600080fd5b505af4158015610a7d573d6000803e3d6000fd5b5050505061016454610a9784610a92906132f6565b611c30565b14610ab55760405163723a340360e01b815260040160405180910390fd5b6000610ac3610a92866132f6565b90506000610ad082611c85565b9050610ae38585858463a6666666611cec565b6101648290556040860135610163556101628054906000610b038361339c565b90915550506101625460408701357f20d5dcc846f7451afb9c8dc6dbf5f2242d04549ae17eb976f19b36cb4d7e165661015f610b3f8a806133b5565b610b4c60208d018d6133b5565b604051610b5d9594939291906133fe565b60405180910390a35050610b72600161012d55565b50505050565b6000610b83816118c5565b610a05611f04565b610b936118cf565b610b9b611917565b81516020808401516040808601516060870151608088015160a089015160c08a015160e08b01516101008c01516101208d01516101408e0151985160009c610bfc9c67695265636569766560c01b9c919b919a9998979695949392016134a2565b6040516020818303038152906040529050610c1986868684611972565b8260a001518051906020012061015f604051610c359190613558565b604051809103902014610c7a5760405162461bcd60e51b815260206004820152600d60248201526c1ddc9bdb99c819195cdd081251609a1b60448201526064016106cc565b6101668360600151604051610c8f91906130ce565b9081526040805160209281900383019020858301516000908152925290205460ff1615610ce45760405162461bcd60e51b815260206004820152600360248201526221981b60e91b60448201526064016106cc565b825115610dab5760808301516001600160a01b0316610d3b5760405162461bcd60e51b8152602060048201526013602482015272526563697069656e74203d206164647228302960681b60448201526064016106cc565b6101605483516080850151604051633fdb071d60e01b815260048101929092526001600160a01b03908116602483015290911690633fdb071d90604401600060405180830381600087803b158015610d9257600080fd5b505af1158015610da6573d6000803e3d6000fd5b505050505b60c08301516001906001600160a01b031615801590610dce575060c08401513b15155b15610e715760c0840151602085015160408087015160e088015160608901516101208a01516101008b0151945163cc54dc9560e01b81526001600160a01b0388169663cc54dc9596610e2a9691959194919391926004016135ce565b6020604051808303816000875af1158015610e49573d6000803e3d6000fd5b505050506040513d601f19601f82011682018060405250810190610e6d919061362f565b9150505b60016101668560600151604051610e8891906130ce565b908152604080516020928190038301902087830151600090815292529020805460ff191691151591909117905561016280546001019081905581610f67578085602001517f3bf9ad3ae3a3a7c22a8cb63b259bcf1abc195a223b499b4c8e884981d6154839876060015161015f888a60e001516000604051602001610f1890602080825260009082015260400190565b60408051601f1981840301815290829052610f36929160200161364c565b60408051601f1981840301815290829052610f579594939291600090613667565b60405180910390a35050506110f9565b60606000866101400151611038578661010001516001600160a01b0316631aa6485a60e01b8860e001518961012001518a60600151604051602401610fae939291906136de565b60408051601f198184030181529181526020820180516001600160e01b03166001600160e01b0319909416939093179092529051610fec91906130ce565b6000604051808303816000865af19150503d8060008114611029576040519150601f19603f3d011682016040523d82523d6000602084013e61102e565b606091505b50925090506110a2565b8661010001516001600160a01b031687610120015160405161105a91906130ce565b6000604051808303816000865af19150503d8060008114611097576040519150601f19603f3d011682016040523d82523d6000602084013e61109c565b606091505b50925090505b8287602001517f3bf9ad3ae3a3a7c22a8cb63b259bcf1abc195a223b499b4c8e884981d6154839896060015161015f8a8c60e0015188886040516110eb96959493929190613667565b60405180910390a350505050505b61087f600161012d55565b6001600160a01b037f000000000000000000000000000000000000000000000000000000000000000016300361114c5760405162461bcd60e51b81526004016106cc90613137565b7f00000000000000000000000000000000000000000000000000000000000000006001600160a01b0316611195600080516020613cca833981519152546001600160a01b031690565b6001600160a01b0316146111bb5760405162461bcd60e51b81526004016106cc90613183565b6111c482611aba565b61092582826001611ac5565b600054610100900460ff16158080156111f05750600054600160ff909116105b8061120a5750303b15801561120a575060005460ff166001145b61126d5760405162461bcd60e51b815260206004820152602e60248201527f496e697469616c697a61626c653a20636f6e747261637420697320616c72656160448201526d191e481a5b9a5d1a585b1a5e995960921b60648201526084016106cc565b6000805460ff191660011790558015611290576000805461ff0019166101001790555b825184511415806112a057508351155b156112be5760405163c6617b7b60e01b815260040160405180910390fd5b6112e260405180606001604052806060815260200160608152602001600081525090565b5060408051606081018252858152602081018590526001600160401b0384168183015290516313faa2cb60e21b815273__$3a251ea1cc61964ae40baf872424c5ecdd$__90634fea8b2c9061133b908490600401613717565b60006040518083038186803b15801561135357600080fd5b505af4158015611367573d6000803e3d6000fd5b50505050600061137682611c30565b9050611380611f56565b611388611f7d565b611393600033611fac565b61015f6113a08882613810565b5060006101628181556001600160401b03861661016355610164839055816113c78161339c565b9091555050600161016155610162546040516001600160401b038616907f20d5dcc846f7451afb9c8dc6dbf5f2242d04549ae17eb976f19b36cb4d7e1656906114179061015f908b908b9061394c565b60405180910390a35050801561087f576000805461ff0019169055604051600181527f7f26b83ff96e1f2b6a682f133852f6798a09c465da95921460cefb38474024989060200160405180910390a15050505050565b6000306001600160a01b037f0000000000000000000000000000000000000000000000000000000000000000161461150d5760405162461bcd60e51b815260206004820152603860248201527f555550535570677261646561626c653a206d757374206e6f742062652063616c60448201527f6c6564207468726f7567682064656c656761746563616c6c000000000000000060648201526084016106cc565b50600080516020613cca83398151915290565b600061152b816118c5565b6001600160a01b0382166115675760405162461bcd60e51b815260206004820152600360248201526221981960e91b60448201526064016106cc565b61016080546001600160a01b0319166001600160a01b0384169081179091556040519081527fa61fe9500102ba95e70ba9796789006b4719448a4ebc364e6c2c943d5d63d18f9060200160405180910390a15050565b60006115c76118cf565b610165543410156116005760405162461bcd60e51b815260206004820152600360248201526243303360e81b60448201526064016106cc565b89156116d9578888604051611616929190613985565b6040519081900390207fc5d2460186f7233c927e7db2dcc703c0e500b653ca82273b7bfad8045d85a470036116735760405162461bcd60e51b815260206004820152600360248201526210cc0d60ea1b60448201526064016106cc565b61016054604051636e553f6560e01b8152600481018c90523360248201526001600160a01b0390911690636e553f6590604401600060405180830381600087803b1580156116c057600080fd5b505af11580156116d4573d6000803e3d6000fd5b505050505b61016280549060006116ea8361339c565b91905055506117018b8b89898d8d8b8b8b8b611fb6565b50610162549a9950505050505050505050565b600061171f816118c5565b610a05612015565b60009182526097602090815260408084206001600160a01b0393909316845291905290205460ff1690565b61015f805461176090612f7e565b80601f016020809104026020016040519081016040528092919081815260200182805461178c90612f7e565b80156117d95780601f106117ae576101008083540402835291602001916117d9565b820191906000526020600020905b8154815290600101906020018083116117bc57829003601f168201915b505050505081565b6000828152609760205260409020600101546117fc816118c5565b61066f8383611a53565b6000611811816118c5565b5061016555565b6000610165543410156118535760405162461bcd60e51b815260206004820152600360248201526243303360e81b60448201526064016106cc565b61016280549060006118648361339c565b9190505550610162547f1ff6cbf099d2cd90494426a312eae3d52a88116b0ee9f37e074072a79a2334893361015f856040516118a293929190613995565b60405180910390a250506101625490565b60006118be816118c5565b5061016155565b610a058133612052565b60335460ff16156119155760405162461bcd60e51b815260206004820152601060248201526f14185d5cd8589b194e881c185d5cd95960821b60448201526064016106cc565b565b600261012d540361196a5760405162461bcd60e51b815260206004820152601f60248201527f5265656e7472616e637947756172643a207265656e7472616e742063616c6c0060448201526064016106cc565b600261012d55565b61016454611982610a92866132f6565b146119a05760405163723a340360e01b815260040160405180910390fd5b8051602082012060006119b282611c85565b90506119c58686868463a6666666611cec565b505050505050565b6119d78282611727565b6109255760008281526097602090815260408083206001600160a01b03851684529091529020805460ff19166001179055611a0f3390565b6001600160a01b0316816001600160a01b0316837f2f8788117e7eff1d82e926ec794901d17c78024a50270940304540a733656f0d60405160405180910390a45050565b611a5d8282611727565b156109255760008281526097602090815260408083206001600160a01b0385168085529252808320805460ff1916905551339285917ff6391f5c32d9c69d2a47ea670b442974b53935d1edc7fd64eb21e047a839171b9190a45050565b6000610925816118c5565b7f4910fdfa16fed3260ed0e7147f7cc6da11a60208b5b9406d12a635614ffd91435460ff1615611af85761066f836120ab565b826001600160a01b03166352d1902d6040518163ffffffff1660e01b8152600401602060405180830381865afa925050508015611b52575060408051601f3d908101601f19168201909252611b4f918101906139cb565b60015b611bb55760405162461bcd60e51b815260206004820152602e60248201527f45524331393637557067726164653a206e657720696d706c656d656e7461746960448201526d6f6e206973206e6f74205555505360901b60648201526084016106cc565b600080516020613cca8339815191528114611c245760405162461bcd60e51b815260206004820152602960248201527f45524331393637557067726164653a20756e737570706f727465642070726f786044820152681a58589b195555525160ba1b60648201526084016106cc565b5061066f838383612147565b6000806918da1958dadc1bda5b9d60b21b60001b836040015184600001518560200151604051602001611c6694939291906139e4565b60408051601f1981840301815291905280516020909101209392505050565b60006040518060400160405280601c81526020017f19457468657265756d205369676e6564204d6573736167653a0a33320000000081525082604051602001611ccf929190613a20565b604051602081830303815290604052805190602001209050919050565b6000805b611cfa87806133b5565b9050816001600160401b03161015611ebe578585826001600160401b0316818110611d2757611d27613a42565b9050602002810190611d399190613a58565b9050604114611d5b57604051634be6321b60e01b815260040160405180910390fd5b60008686836001600160401b0316818110611d7857611d78613a42565b9050602002810190611d8a9190613a58565b8080601f01602080910402602001604051908101604052809392919081815260200183838082843760009201829052506020850151604086015160608701519697509095909450901a9150508015611ea757611e20611de98c806133b5565b876001600160401b0316818110611e0257611e02613a42565b9050602002016020810190611e17919061265d565b8985858561216c565b611e3d57604051638baa579f60e01b815260040160405180910390fd5b611e4a60208c018c6133b5565b866001600160401b0316818110611e6357611e63613a42565b9050602002016020810190611e789190613a9e565b611e829087613ab9565b9550866001600160401b0316866001600160401b03161115611ea75750505050611ebe565b505050508080611eb690613ae0565b915050611cf0565b50816001600160401b0316816001600160401b0316116119c55760405163fc86a67160e01b81526001600160401b038083166004830152831660248201526044016106cc565b611f0c612199565b6033805460ff191690557f5db9ee0a495bf2e6ff9c91a7834c1ba4fdd244a5e8aa4e537bd38aeae4b073aa335b6040516001600160a01b03909116815260200160405180910390a1565b600054610100900460ff166119155760405162461bcd60e51b81526004016106cc90613b06565b600054610100900460ff16611fa45760405162461bcd60e51b81526004016106cc90613b06565b6119156121e2565b61092582826119cd565b610162547ffe97fc293d7232e604aad58a3d02e21ee253fa0462586ea83bf3d6a84d987a6a8b8b3361015f8d8d8d8d8d8d8d8d6040516120019c9b9a99989796959493929190613b7a565b60405180910390a250505050505050505050565b61201d6118cf565b6033805460ff191660011790557f62e78cea01bee320cd4e420270b5ea74000d11b0c9f74754ebdbfc544b05a258611f393390565b61205c8282611727565b6109255761206981612215565b612074836020612227565b604051602001612085929190613c13565b60408051601f198184030181529082905262461bcd60e51b82526106cc91600401612f37565b6001600160a01b0381163b6121185760405162461bcd60e51b815260206004820152602d60248201527f455243313936373a206e657720696d706c656d656e746174696f6e206973206e60448201526c1bdd08184818dbdb9d1c9858dd609a1b60648201526084016106cc565b600080516020613cca83398151915280546001600160a01b0319166001600160a01b0392909216919091179055565b612150836123c9565b60008251118061215d5750805b1561066f57610b728383612409565b600061217a8585858561242e565b6001600160a01b0316866001600160a01b031614905095945050505050565b60335460ff166119155760405162461bcd60e51b815260206004820152601460248201527314185d5cd8589b194e881b9bdd081c185d5cd95960621b60448201526064016106cc565b600054610100900460ff166122095760405162461bcd60e51b81526004016106cc90613b06565b6033805460ff19169055565b60606106296001600160a01b03831660145b60606000612236836002613c88565b612241906002613c9f565b6001600160401b03811115612258576122586126db565b6040519080825280601f01601f191660200182016040528015612282576020820181803683370190505b509050600360fc1b8160008151811061229d5761229d613a42565b60200101906001600160f81b031916908160001a905350600f60fb1b816001815181106122cc576122cc613a42565b60200101906001600160f81b031916908160001a90535060006122f0846002613c88565b6122fb906001613c9f565b90505b6001811115612373576f181899199a1a9b1b9c1cb0b131b232b360811b85600f166010811061232f5761232f613a42565b1a60f81b82828151811061234557612345613a42565b60200101906001600160f81b031916908160001a90535060049490941c9361236c81613cb2565b90506122fe565b5083156123c25760405162461bcd60e51b815260206004820181905260248201527f537472696e67733a20686578206c656e67746820696e73756666696369656e7460448201526064016106cc565b9392505050565b6123d2816120ab565b6040516001600160a01b038216907fbc7cd75a20ee27fd9adebab32041f755214dbc6bffa90cc0225b39da2e5c2d3b90600090a250565b60606123c28383604051806060016040528060278152602001613cea60279139612501565b60007f7fffffffffffffffffffffffffffffff5d576e7357a4501ddfe92f46681b20a0831115612471576040516308183ce960e31b815260040160405180910390fd5b6040805160008082526020820180845288905260ff851692820192909252606081018690526080810185905260019060a0016020604051602081039080840390855afa1580156124c5573d6000803e3d6000fd5b505050602060405103519150816001600160a01b0316036124f95760405163629289a160e01b815260040160405180910390fd5b949350505050565b6060600080856001600160a01b03168560405161251e91906130ce565b600060405180830381855af49150503d8060008114612559576040519150601f19603f3d011682016040523d82523d6000602084013e61255e565b606091505b509150915061256f86838387612579565b9695505050505050565b606083156125e85782516000036125e1576001600160a01b0385163b6125e15760405162461bcd60e51b815260206004820152601d60248201527f416464726573733a2063616c6c20746f206e6f6e2d636f6e747261637400000060448201526064016106cc565b50816124f9565b6124f983838151156125fd5781518083602001fd5b8060405162461bcd60e51b81526004016106cc9190612f37565b60006020828403121561262957600080fd5b81356001600160e01b0319811681146123c257600080fd5b80356001600160a01b038116811461265857600080fd5b919050565b60006020828403121561266f57600080fd5b6123c282612641565b60006060828403121561268a57600080fd5b50919050565b60008083601f8401126126a257600080fd5b5081356001600160401b038111156126b957600080fd5b6020830191508360208260051b85010111156126d457600080fd5b9250929050565b634e487b7160e01b600052604160045260246000fd5b60405160c081016001600160401b0381118282101715612713576127136126db565b60405290565b60405161016081016001600160401b0381118282101715612713576127136126db565b604051601f8201601f191681016001600160401b0381118282101715612764576127646126db565b604052919050565b600082601f83011261277d57600080fd5b81356001600160401b03811115612796576127966126db565b6127a9601f8201601f191660200161273c565b8181528460208386010111156127be57600080fd5b816020850160208301376000918101602001919091529392505050565b8015158114610a0557600080fd5b8035612658816127db565b60008060008060006080868803121561280c57600080fd5b85356001600160401b038082111561282357600080fd5b61282f89838a01612678565b9650602088013591508082111561284557600080fd5b61285189838a01612690565b9096509450604088013591508082111561286a57600080fd5b9087019060c0828a03121561287e57600080fd5b6128866126f1565b82358152602083013560208201526040830135828111156128a657600080fd5b6128b28b82860161276c565b6040830152506128c460608401612641565b60608201526080830135828111156128db57600080fd5b6128e78b82860161276c565b6080830152506128f960a084016127e9565b60a08201529350606088013591508082111561291457600080fd5b506129218882890161276c565b9150509295509295909350565b60006020828403121561294057600080fd5b5035919050565b6000806040838503121561295a57600080fd5b8235915061296a60208401612641565b90509250929050565b6000806000806060858703121561298957600080fd5b84356001600160401b03808211156129a057600080fd5b6129ac88838901612678565b955060208701359150808211156129c257600080fd5b6129ce88838901612678565b945060408701359150808211156129e457600080fd5b506129f187828801612690565b95989497509550505050565b600080600080600060808688031215612a1557600080fd5b85356001600160401b0380821115612a2c57600080fd5b612a3889838a01612678565b96506020880135915080821115612a4e57600080fd5b612a5a89838a01612690565b90965094506040880135915080821115612a7357600080fd5b90870190610160828a031215612a8857600080fd5b612a90612719565b823581526020830135602082015260408301356040820152606083013582811115612aba57600080fd5b612ac68b82860161276c565b606083015250612ad860808401612641565b608082015260a083013582811115612aef57600080fd5b612afb8b82860161276c565b60a083015250612b0d60c08401612641565b60c082015260e083013582811115612b2457600080fd5b612b308b82860161276c565b60e083015250610100612b44818501612641565b908201526101208381013583811115612b5c57600080fd5b612b688c82870161276c565b828401525050610140612b7c8185016127e9565b908201529350606088013591508082111561291457600080fd5b60008060408385031215612ba957600080fd5b612bb283612641565b915060208301356001600160401b03811115612bcd57600080fd5b612bd98582860161276c565b9150509250929050565b60006001600160401b03821115612bfc57612bfc6126db565b5060051b60200190565b600082601f830112612c1757600080fd5b81356020612c2c612c2783612be3565b61273c565b82815260059290921b84018101918181019086841115612c4b57600080fd5b8286015b84811015612c6d57612c6081612641565b8352918301918301612c4f565b509695505050505050565b80356001600160401b038116811461265857600080fd5b600082601f830112612ca057600080fd5b81356020612cb0612c2783612be3565b82815260059290921b84018101918181019086841115612ccf57600080fd5b8286015b84811015612c6d57612ce481612c78565b8352918301918301612cd3565b60008060008060808587031215612d0757600080fd5b84356001600160401b0380821115612d1e57600080fd5b612d2a8883890161276c565b95506020870135915080821115612d4057600080fd5b612d4c88838901612c06565b94506040870135915080821115612d6257600080fd5b50612d6f87828801612c8f565b925050612d7e60608601612c78565b905092959194509250565b60008060408385031215612d9c57600080fd5b82356001600160401b03811115612db257600080fd5b612dbe8582860161276c565b95602094909401359450505050565b60008083601f840112612ddf57600080fd5b5081356001600160401b03811115612df657600080fd5b6020830191508360208285010111156126d457600080fd5b60008060008060008060008060008060c08b8d031215612e2d57600080fd5b8a35995060208b0135985060408b01356001600160401b0380821115612e5257600080fd5b612e5e8e838f01612dcd565b909a50985060608d0135915080821115612e7757600080fd5b612e838e838f01612dcd565b909850965060808d0135915080821115612e9c57600080fd5b612ea88e838f01612dcd565b909650945060a08d0135915080821115612ec157600080fd5b50612ece8d828e01612dcd565b915080935050809150509295989b9194979a5092959850565b60005b83811015612f02578181015183820152602001612eea565b50506000910152565b60008151808452612f23816020860160208601612ee7565b601f01601f19169290920160200192915050565b6020815260006123c26020830184612f0b565b600060208284031215612f5c57600080fd5b81356001600160401b03811115612f7257600080fd5b6124f98482850161276c565b600181811c90821680612f9257607f821691505b60208210810361268a57634e487b7160e01b600052602260045260246000fd5b60008154612fbf81612f7e565b808552602060018381168015612fdc5760018114612ff657613024565b60ff1985168884015283151560051b880183019550613024565b866000528260002060005b8581101561301c5781548a8201860152908301908401613001565b890184019650505b505050505092915050565b60006101008a83528060208401526130498184018b612fb2565b905088604084015287606084015282810360808401526130698188612f0b565b6001600160a01b03871660a085015283810360c0850152905061308c8186612f0b565b91505082151560e08301529998505050505050505050565b83815282151560208201526060604082015260006130c56060830184612f0b565b95945050505050565b600082516130e0818460208701612ee7565b9190910192915050565b6080815260006130fd6080830187612f0b565b828103602084015261310f8187612fb2565b905082810360408401526131238186612f0b565b915050821515606083015295945050505050565b6020808252602c908201527f46756e6374696f6e206d7573742062652063616c6c6564207468726f7567682060408201526b19195b1959d85d1958d85b1b60a21b606082015260800190565b6020808252602c908201527f46756e6374696f6e206d7573742062652063616c6c6564207468726f7567682060408201526b6163746976652070726f787960a01b606082015260800190565b6000808335601e198436030181126131e657600080fd5b83016020810192503590506001600160401b0381111561320557600080fd5b8060051b36038213156126d457600080fd5b60006060830161322783846131cf565b606086529182905290600090608086015b81831015613267576001600160a01b0361325185612641565b1681526020938401936001939093019201613238565b60209350613277848701876131cf565b888303868a01528083529350915060009084015b838210156132b9576001600160401b036132a484612c78565b1681529184019160019190910190840161328b565b60408701356040890152809550505050505092915050565b6040815260006132e46040830185613217565b82810360208401526130c58185613217565b60006060823603121561330857600080fd5b604051606081016001600160401b03828210818311171561332b5761332b6126db565b81604052843591508082111561334057600080fd5b61334c36838701612c06565b8352602085013591508082111561336257600080fd5b5061336f36828601612c8f565b602083015250604092830135928101929092525090565b634e487b7160e01b600052601160045260246000fd5b6000600182016133ae576133ae613386565b5060010190565b6000808335601e198436030181126133cc57600080fd5b8301803591506001600160401b038211156133e657600080fd5b6020019150600581901b36038213156126d457600080fd5b6060815260006134116060830188612fb2565b8281036020848101919091528682528791810160005b88811015613453576001600160a01b0361344085612641565b1682529282019290820190600101613427565b508481036040860152858152810191508560005b86811015613493576001600160401b0361348083612c78565b1684529282019290820190600101613467565b50919998505050505050505050565b60006101808e83528d60208401528c60408401528b60608401528060808401526134ce8184018c612f0b565b6001600160a01b038b811660a086015284820360c08601529091506134f3828b612f0b565b90891660e085015283810361010085015290506135108188612f0b565b6001600160a01b03871661012085015290508281036101408401526135358186612f0b565b91505061354761016083018415159052565b9d9c50505050505050505050505050565b600080835461356681612f7e565b6001828116801561357e5760018114613593576135c2565b60ff19841687528215158302870194506135c2565b8760005260208060002060005b858110156135b95781548a8201529084019082016135a0565b50505082870194505b50929695505050505050565b86815285602082015260c0604082015260006135ed60c0830187612f0b565b82810360608401526135ff8187612f0b565b905082810360808401526136138186612f0b565b91505060018060a01b03831660a0830152979650505050505050565b60006020828403121561364157600080fd5b81516123c2816127db565b82151581526040602082015260006124f96040830184612f0b565b60c08152600061367a60c0830189612f0b565b828103602084015261368c8189612fb2565b905082810360408401526136a08188612f0b565b905082810360608401526136b48187612f0b565b905082810360808401526136c88186612f0b565b91505082151560a0830152979650505050505050565b6060815260006136f16060830186612f0b565b82810360208401526137038186612f0b565b9050828103604084015261256f8185612f0b565b6020808252825160608383015280516080840181905260009291820190839060a08601905b808310156137655783516001600160a01b0316825292840192600192909201919084019061373c565b5086840151868203601f190160408801528051808352908501935090840191506000905b808210156137b25783516001600160401b03168352928401929184019160019190910190613789565b50506040860151606086015280935050505092915050565b601f82111561066f57600081815260208120601f850160051c810160208610156137f15750805b601f850160051c820191505b818110156119c5578281556001016137fd565b81516001600160401b03811115613829576138296126db565b61383d816138378454612f7e565b846137ca565b602080601f831160018114613872576000841561385a5750858301515b600019600386901b1c1916600185901b1785556119c5565b600085815260208120601f198616915b828110156138a157888601518255948401946001909101908401613882565b50858210156138bf5787850151600019600388901b60f8161c191681555b5050505050600190811b01905550565b600081518084526020808501945080840160005b838110156139085781516001600160a01b0316875295820195908201906001016138e3565b509495945050505050565b600081518084526020808501945080840160005b838110156139085781516001600160401b031687529582019590820190600101613927565b60608152600061395f6060830186612fb2565b828103602084015261397181866138cf565b9050828103604084015261256f8185613913565b8183823760009101908152919050565b6001600160a01b03841681526060602082018190526000906139b990830185612fb2565b828103604084015261256f8185612f0b565b6000602082840312156139dd57600080fd5b5051919050565b848152836020820152608060408201526000613a0360808301856138cf565b8281036060840152613a158185613913565b979650505050505050565b60008351613a32818460208801612ee7565b9190910191825250602001919050565b634e487b7160e01b600052603260045260246000fd5b6000808335601e19843603018112613a6f57600080fd5b8301803591506001600160401b03821115613a8957600080fd5b6020019150368190038213156126d457600080fd5b600060208284031215613ab057600080fd5b6123c282612c78565b6001600160401b03818116838216019080821115613ad957613ad9613386565b5092915050565b60006001600160401b03808316818103613afc57613afc613386565b6001019392505050565b6020808252602b908201527f496e697469616c697a61626c653a20636f6e7472616374206973206e6f74206960408201526a6e697469616c697a696e6760a81b606082015260800190565b81835281816020850137506000828201602090810191909152601f909101601f19169091010190565b8c8152602081018c90526001600160a01b038b16604082015261010060608201819052600090613bac8382018d612fb2565b90508281036080840152613bc1818b8d613b51565b905082810360a0840152613bd681898b613b51565b905082810360c0840152613beb818789613b51565b905082810360e0840152613c00818587613b51565b9f9e505050505050505050505050505050565b7f416363657373436f6e74726f6c3a206163636f756e7420000000000000000000815260008351613c4b816017850160208801612ee7565b7001034b99036b4b9b9b4b733903937b6329607d1b6017918401918201528351613c7c816028840160208801612ee7565b01602801949350505050565b808202811582820484141761062957610629613386565b8082018082111561062957610629613386565b600081613cc157613cc1613386565b50600019019056fe360894a13ba1a3210667c828492db98dca3e2076cc3735a920a3ca505d382bbc416464726573733a206c6f772d6c6576656c2064656c65676174652063616c6c206661696c6564a2646970667358221220a1c19d6346a7e65d4500a80345b37c3e8d1f6b7fc9971f46995592c0f93b438964736f6c63430008130033",
    "linkReferences": {
      "src/routerprotocol/contracts/libraries/ValsetUpdate.sol": {
        "ValsetUpdate": [
          {
            "start": 2675,
            "length": 20
          },
          {
            "start": 4959,
            "length": 20
          }
        ]
      }
    }
  },
  "methodIdentifiers": {
    "DEFAULT_ADMIN_ROLE()": "a217fddf",
    "ackNonceExecuted(uint256)": "a0436a41",
    "chainId()": "9a8a0592",
    "currentVersion()": "9d888e86",
    "eventNonce()": "1c3e6ee6",
    "getRoleAdmin(bytes32)": "248a9ca3",
    "grantRole(bytes32,address)": "2f2ff15d",
    "hasRole(bytes32,address)": "91d14854",
    "iAck((address[],uint64[],uint256),bytes[],(uint256,uint256,string,address,bytes,bool),string)": "2205643a",
    "iReceive((address[],uint64[],uint256),bytes[],(uint256,uint256,uint256,string,address,string,address,string,address,bytes,bool),string)": "44bdf5a7",
    "iSend(uint256,uint256,string,string,bytes,bytes)": "7bed470a",
    "iSendDefaultFee()": "a707d6b8",
    "initialize(string,address[],uint64[],uint64)": "51b6ac3f",
    "nonceExecuted(string,uint256)": "7a40d0f7",
    "pause()": "8456cb59",
    "paused()": "5c975abb",
    "proxiableUUID()": "52d1902d",
    "renounceRole(bytes32,address)": "36568abe",
    "revokeRole(bytes32,address)": "d547741f",
    "setBridgeFees(uint256)": "ea76f6d7",
    "setCurrentVersion(uint256)": "f3a0ce41",
    "setDappMetadata(string)": "ef15cbda",
    "setVault(address)": "6817031b",
    "stateLastValsetCheckpoint()": "05cf22fc",
    "stateLastValsetNonce()": "42fb207c",
    "supportsInterface(bytes4)": "01ffc9a7",
    "unpause()": "3f4ba83a",
    "updateValset((address[],uint64[],uint256),(address[],uint64[],uint256),bytes[])": "3bcced29",
    "upgradeTo(address)": "3659cfe6",
    "upgradeToAndCall(address,bytes)": "4f1ef286",
    "vault()": "fbfa77cf",
    "withdrawFee(address)": "1ac3ddeb"
  },
  "id": 73
}