{
  "abi": [
    {
      "inputs": [
        {
          "internalType": "address",
          "name": "gatewayAddress",
          "type": "address"
        },
        {
          "internalType": "uint256",
          "name": "_delayPeriod",
          "type": "uint256"
        },
        {
          "internalType": "string",
          "name": "_routerBridgeAddress",
          "type": "string"
        }
      ],
      "stateMutability": "nonpayable",
      "type": "constructor"
    },
    {
      "inputs": [],
      "name": "appRouterBridgeAddress",
      "outputs": [
        {
          "internalType": "string",
          "name": "",
          "type": "string"
        }
      ],
      "stateMutability": "view",
      "type": "function"
    },
    {
      "inputs": [],
      "name": "delayPeriod",
      "outputs": [
        {
          "internalType": "uint256",
          "name": "",
          "type": "uint256"
        }
      ],
      "stateMutability": "view",
      "type": "function"
    },
    {
      "inputs": [
        {
          "internalType": "bytes32",
          "name": "",
          "type": "bytes32"
        }
      ],
      "name": "delayedTransfers",
      "outputs": [
        {
          "internalType": "bool",
          "name": "",
          "type": "bool"
        }
      ],
      "stateMutability": "view",
      "type": "function"
    },
    {
      "inputs": [],
      "name": "gatewayContract",
      "outputs": [
        {
          "internalType": "address",
          "name": "",
          "type": "address"
        }
      ],
      "stateMutability": "view",
      "type": "function"
    },
    {
      "inputs": [],
      "name": "owner",
      "outputs": [
        {
          "internalType": "address",
          "name": "",
          "type": "address"
        }
      ],
      "stateMutability": "view",
      "type": "function"
    },
    {
      "inputs": [
        {
          "internalType": "bytes32",
          "name": "id",
          "type": "bytes32"
        }
      ],
      "name": "rejectRequest",
      "outputs": [],
      "stateMutability": "nonpayable",
      "type": "function"
    },
    {
      "inputs": [
        {
          "internalType": "uint256",
          "name": "_delayPeriod",
          "type": "uint256"
        }
      ],
      "name": "setDelayPeriod",
      "outputs": [],
      "stateMutability": "nonpayable",
      "type": "function"
    },
    {
      "inputs": [
        {
          "internalType": "uint256",
          "name": "requestIdentifier",
          "type": "uint256"
        },
        {
          "internalType": "uint256",
          "name": "requestTimestamp",
          "type": "uint256"
        },
        {
          "internalType": "string",
          "name": "requestSender",
          "type": "string"
        },
        {
          "internalType": "string",
          "name": "srcChainId",
          "type": "string"
        },
        {
          "internalType": "bytes",
          "name": "packet",
          "type": "bytes"
        },
        {
          "internalType": "address",
          "name": "handler",
          "type": "address"
        }
      ],
      "name": "verifyCrossChainRequest",
      "outputs": [
        {
          "internalType": "bool",
          "name": "",
          "type": "bool"
        }
      ],
      "stateMutability": "view",
      "type": "function"
    }
  ],
  "bytecode": {
    "object": "0x60c06040523480156200001157600080fd5b50604051620009dc380380620009dc833981016040819052620000349162000078565b6001600160a01b0383166080523360a0526001829055600262000058828262000206565b50505050620002d2565b634e487b7160e01b600052604160045260246000fd5b6000806000606084860312156200008e57600080fd5b83516001600160a01b0381168114620000a657600080fd5b60208581015160408701519295509350906001600160401b0380821115620000cd57600080fd5b818701915087601f830112620000e257600080fd5b815181811115620000f757620000f762000062565b604051601f8201601f19908116603f0116810190838211818310171562000122576200012262000062565b816040528281528a868487010111156200013b57600080fd5b600093505b828410156200015f578484018601518185018701529285019262000140565b60008684830101528096505050505050509250925092565b600181811c908216806200018c57607f821691505b602082108103620001ad57634e487b7160e01b600052602260045260246000fd5b50919050565b601f8211156200020157600081815260208120601f850160051c81016020861015620001dc5750805b601f850160051c820191505b81811015620001fd57828155600101620001e8565b5050505b505050565b81516001600160401b0381111562000222576200022262000062565b6200023a8162000233845462000177565b84620001b3565b602080601f831160018114620002725760008415620002595750858301515b600019600386901b1c1916600185901b178555620001fd565b600085815260208120601f198616915b82811015620002a35788860151825594840194600190910190840162000282565b5085821015620002c25787850151600019600388901b60f8161c191681555b5050505050600190811b01905550565b60805160a0516106d06200030c6000396000818160c50152818161022f01526102a701526000818161017401526102f901526106d06000f3fe608060405234801561001057600080fd5b50600436106100885760003560e01c8063adc0d57f1161005b578063adc0d57f14610112578063b1c94d9414610145578063cc54dc951461015c578063eb0cde1d1461016f57600080fd5b80632ef7f7101461008d5780633d572107146100ab5780638da5cb5b146100c057806395587d03146100ff575b600080fd5b610095610196565b6040516100a2919061042d565b60405180910390f35b6100be6100b936600461047b565b610224565b005b6100e77f000000000000000000000000000000000000000000000000000000000000000081565b6040516001600160a01b0390911681526020016100a2565b6100be61010d36600461047b565b61029c565b61013561012036600461047b565b60006020819052908152604090205460ff1681565b60405190151581526020016100a2565b61014e60015481565b6040519081526020016100a2565b61013561016a3660046104dd565b6102ec565b6100e77f000000000000000000000000000000000000000000000000000000000000000081565b600280546101a3906105a9565b80601f01602080910402602001604051908101604052809291908181526020018280546101cf906105a9565b801561021c5780601f106101f15761010080835404028352916020019161021c565b820191906000526020600020905b8154815290600101906020018083116101ff57829003601f168201915b505050505081565b336001600160a01b037f000000000000000000000000000000000000000000000000000000000000000016146102975760405162461bcd60e51b815260206004820152601360248201527221b0b63632b91034b9903737ba1037bbb732b960691b60448201526064015b60405180910390fd5b600155565b336001600160a01b037f000000000000000000000000000000000000000000000000000000000000000016146102d157600080fd5b6000908152602081905260409020805460ff19166001179055565b6000336001600160a01b037f0000000000000000000000000000000000000000000000000000000000000000161461035e5760405162461bcd60e51b815260206004820152601560248201527443616c6c6572206973206e6f74206761746577617960581b604482015260640161028e565b60008a8a8a8a8a8a8a8a8a6040516020016103819998979695949392919061060c565b60408051601f19818403018152918152815160209283012060008181529283905291205490915060ff16156103ba576000915050610420565b6001546103c7908b610673565b4211156103d8576001915050610420565b60405162461bcd60e51b815260206004820152601f60248201527f5472616e73616374696f6e206e6565647320746f2062652064656c6179656400604482015260640161028e565b9998505050505050505050565b600060208083528351808285015260005b8181101561045a5785810183015185820160400152820161043e565b506000604082860101526040601f19601f8301168501019250505092915050565b60006020828403121561048d57600080fd5b5035919050565b60008083601f8401126104a657600080fd5b50813567ffffffffffffffff8111156104be57600080fd5b6020830191508360208285010111156104d657600080fd5b9250929050565b600080600080600080600080600060c08a8c0312156104fb57600080fd5b8935985060208a0135975060408a013567ffffffffffffffff8082111561052157600080fd5b61052d8d838e01610494565b909950975060608c013591508082111561054657600080fd5b6105528d838e01610494565b909750955060808c013591508082111561056b57600080fd5b506105788c828d01610494565b90945092505060a08a01356001600160a01b038116811461059857600080fd5b809150509295985092959850929598565b600181811c908216806105bd57607f821691505b6020821081036105dd57634e487b7160e01b600052602260045260246000fd5b50919050565b81835281816020850137506000828201602090810191909152601f909101601f19169091010190565b89815288602082015260c06040820152600061062c60c08301898b6105e3565b828103606084015261063f81888a6105e3565b905082810360808401526106548186886105e3565b91505060018060a01b03831660a08301529a9950505050505050505050565b8082018082111561069457634e487b7160e01b600052601160045260246000fd5b9291505056fea26469706673582212206108175e3a582fdaca77cdcea7bea4bd9195037791269df9bb6b648d3b747bf464736f6c63430008130033",
    "linkReferences": {}
  },
  "methodIdentifiers": {
    "appRouterBridgeAddress()": "2ef7f710",
    "delayPeriod()": "b1c94d94",
    "delayedTransfers(bytes32)": "adc0d57f",
    "gatewayContract()": "eb0cde1d",
    "owner()": "8da5cb5b",
    "rejectRequest(bytes32)": "95587d03",
    "setDelayPeriod(uint256)": "3d572107",
    "verifyCrossChainRequest(uint256,uint256,string,string,bytes,address)": "cc54dc95"
  },
  "id": 72
}