{
  "abi": [
    {
      "inputs": [
        {
          "internalType": "address payable",
          "name": "gatewayAddress",
          "type": "address"
        },
        {
          "internalType": "address",
          "name": "routeTokenAddress",
          "type": "address"
        },
        {
          "internalType": "address",
          "name": "assetVaultAddress",
          "type": "address"
        }
      ],
      "stateMutability": "nonpayable",
      "type": "constructor"
    },
    {
      "inputs": [
        {
          "internalType": "string",
          "name": "message",
          "type": "string"
        }
      ],
      "name": "CustomError",
      "type": "error"
    },
    {
      "anonymous": false,
      "inputs": [
        {
          "indexed": true,
          "internalType": "string",
          "name": "bridgeContract",
          "type": "string"
        },
        {
          "indexed": false,
          "internalType": "bytes",
          "name": "data",
          "type": "bytes"
        }
      ],
      "name": "RequestFromRouterEvent",
      "type": "event"
    },
    {
      "inputs": [],
      "name": "ackMessage",
      "outputs": [
        {
          "internalType": "string",
          "name": "",
          "type": "string"
        }
      ],
      "stateMutability": "view",
      "type": "function"
    },
    {
      "inputs": [],
      "name": "assetVault",
      "outputs": [
        {
          "internalType": "address",
          "name": "",
          "type": "address"
        }
      ],
      "stateMutability": "view",
      "type": "function"
    },
    {
      "inputs": [],
      "name": "gatewayContract",
      "outputs": [
        {
          "internalType": "contract IGateway",
          "name": "",
          "type": "address"
        }
      ],
      "stateMutability": "view",
      "type": "function"
    },
    {
      "inputs": [
        {
          "internalType": "uint64",
          "name": "gasLimit",
          "type": "uint64"
        },
        {
          "internalType": "uint64",
          "name": "gasPrice",
          "type": "uint64"
        },
        {
          "internalType": "uint64",
          "name": "ackGasLimit",
          "type": "uint64"
        },
        {
          "internalType": "uint64",
          "name": "ackGasPrice",
          "type": "uint64"
        },
        {
          "internalType": "uint128",
          "name": "relayerFees",
          "type": "uint128"
        },
        {
          "internalType": "uint8",
          "name": "ackType",
          "type": "uint8"
        },
        {
          "internalType": "bool",
          "name": "isReadCall",
          "type": "bool"
        },
        {
          "internalType": "string",
          "name": "asmAddress",
          "type": "string"
        }
      ],
      "name": "getRequestMetadata",
      "outputs": [
        {
          "internalType": "bytes",
          "name": "",
          "type": "bytes"
        }
      ],
      "stateMutability": "pure",
      "type": "function"
    },
    {
      "inputs": [],
      "name": "greeting",
      "outputs": [
        {
          "internalType": "string",
          "name": "",
          "type": "string"
        }
      ],
      "stateMutability": "view",
      "type": "function"
    },
    {
      "inputs": [
        {
          "internalType": "uint256",
          "name": "eventIdentifier",
          "type": "uint256"
        },
        {
          "internalType": "bool",
          "name": "execFlag",
          "type": "bool"
        },
        {
          "internalType": "bytes",
          "name": "execData",
          "type": "bytes"
        }
      ],
      "name": "iAck",
      "outputs": [],
      "stateMutability": "nonpayable",
      "type": "function"
    },
    {
      "inputs": [
        {
          "internalType": "string",
          "name": "srcContractAddress",
          "type": "string"
        },
        {
          "internalType": "bytes",
          "name": "packet",
          "type": "bytes"
        },
        {
          "internalType": "string",
          "name": "srcChainId",
          "type": "string"
        }
      ],
      "name": "iReceive",
      "outputs": [
        {
          "internalType": "bytes",
          "name": "",
          "type": "bytes"
        }
      ],
      "stateMutability": "nonpayable",
      "type": "function"
    },
    {
      "inputs": [
        {
          "internalType": "uint256",
          "name": "routeAmount",
          "type": "uint256"
        },
        {
          "internalType": "string",
          "name": "routeRecipient",
          "type": "string"
        },
        {
          "internalType": "string",
          "name": "destChainId",
          "type": "string"
        },
        {
          "internalType": "string",
          "name": "destContractAddress",
          "type": "string"
        },
        {
          "internalType": "uint8",
          "name": "ackType",
          "type": "uint8"
        },
        {
          "internalType": "uint128",
          "name": "relayerFees",
          "type": "uint128"
        }
      ],
      "name": "iSend",
      "outputs": [],
      "stateMutability": "payable",
      "type": "function"
    },
    {
      "inputs": [],
      "name": "lastEventIdentifier",
      "outputs": [
        {
          "internalType": "uint256",
          "name": "",
          "type": "uint256"
        }
      ],
      "stateMutability": "view",
      "type": "function"
    },
    {
      "inputs": [],
      "name": "number",
      "outputs": [
        {
          "internalType": "uint256",
          "name": "",
          "type": "uint256"
        }
      ],
      "stateMutability": "view",
      "type": "function"
    },
    {
      "inputs": [],
      "name": "owner",
      "outputs": [
        {
          "internalType": "address",
          "name": "",
          "type": "address"
        }
      ],
      "stateMutability": "view",
      "type": "function"
    },
    {
      "inputs": [],
      "name": "routeToken",
      "outputs": [
        {
          "internalType": "contract IERC20",
          "name": "",
          "type": "address"
        }
      ],
      "stateMutability": "view",
      "type": "function"
    },
    {
      "inputs": [
        {
          "internalType": "string",
          "name": "feePayerAddress",
          "type": "string"
        }
      ],
      "name": "setDappMetadata",
      "outputs": [],
      "stateMutability": "nonpayable",
      "type": "function"
    },
    {
      "stateMutability": "payable",
      "type": "receive"
    }
  ],
  "bytecode": {
    "object": "0x6080346100ae57601f6111a538819003918201601f19168301916001600160401b038311848410176100b3578084926060946040528339810103126100ae5780516001600160a01b038082169290918390036100ae578161006e6040610067602085016100c9565b93016100c9565b9160018060a01b0319943386600054161760005585600154161760015516836005541617600555169060065416176006556040516110c790816100de8239f35b600080fd5b634e487b7160e01b600052604160045260246000fd5b51906001600160a01b03821682036100ae5756fe6080604052600436101561001b575b361561001957600080fd5b005b60003560e01c80631aa6485a14610a4f5780632ee25c151461092a57806383511b7c146105ab5780638381f58a1461058f5780638da5cb5b14610566578063a4e21288146103c0578063d44aafee146103a2578063eb0cde1d14610379578063ef15cbda14610292578063ef690cc0146101ec578063f61ebc36146101c3578063fbd5dfae1461019a5763fd25c7250361000e57346101955760003660031901126101955760405160006004546100d181610e08565b8084529060019081811690811561016e5750600114610113575b61010f846100fb81860382610d10565b604051918291602083526020830190610db6565b0390f35b6004600090815292507f8a35acfbc15ff81a39ae7d344fd709f28e8600b4aa8c65c6b64bfe7fe36bd19b5b8284106101565750505081016020016100fb826100eb565b8054602085870181019190915290930192810161013e565b60ff191660208087019190915292151560051b850190920192506100fb91508390506100eb565b600080fd5b34610195576000366003190112610195576005546040516001600160a01b039091168152602090f35b34610195576000366003190112610195576006546040516001600160a01b039091168152602090f35b3461019557600036600319011261019557604051600060025461020e81610e08565b8084529060019081811690811561016e57506001146102375761010f846100fb81860382610d10565b6002600090815292507f405787fa12a823e0f2b7631cc41b3ba8828b3321ca811111fa75cd3aa3bb5ace5b82841061027a5750505081016020016100fb826100eb565b80546020858701810191909152909301928101610262565b3461019557602080600319360112610195576004356001600160401b038111610195576102c3903690600401610d4c565b6000546001600160a01b039081163303610347576103076000928492600154169060405194858094819363778ae5ed60e11b83528760048401526024830190610db6565b03925af1801561033b5761031757005b813d8311610334575b61032a8183610d10565b8101031261019557005b503d610320565b6040513d6000823e3d90fd5b60405162461bcd60e51b815260048101849052600a60248201526937b7363c9037bbb732b960b11b6044820152606490fd5b34610195576000366003190112610195576001546040516001600160a01b039091168152602090f35b34610195576000366003190112610195576020600354604051908152f35b346101955760603660031901126101955760243580151503610195576001600160401b03604435818111610195576103fc903690600401610d4c565b90610411602092838082518301019101611030565b91825191821161055057610426600454610e08565b601f81116104ec575b5080601f831160011461046b57508192600092610460575b5050600019600383901b1c191660019190911b17600455005b015190508280610447565b90601f1983169360046000527f8a35acfbc15ff81a39ae7d344fd709f28e8600b4aa8c65c6b64bfe7fe36bd19b926000905b8682106104d457505083600195106104bb575b505050811b01600455005b015160001960f88460031b161c191690558280806104b0565b8060018596829496860151815501950193019061049d565b60046000527f8a35acfbc15ff81a39ae7d344fd709f28e8600b4aa8c65c6b64bfe7fe36bd19b601f840160051c810191838510610546575b601f0160051c01905b81811061053a575061042f565b6000815560010161052d565b9091508190610524565b634e487b7160e01b600052604160045260246000fd5b34610195576000366003190112610195576000546040516001600160a01b039091168152602090f35b3461019557600036600319011261019557602060405160148152f35b60c0366003190112610195576001600160401b03602435818111610195576105d7903690600401610ddb565b9091604435818111610195576105f1903690600401610ddb565b936064358381116101955761060a903690600401610ddb565b94909360ff6084351660843503610195576001600160801b0360a4351660a43503610195576005546040516323b872dd60e01b602082015233602482015230604482015260043560648083019190915281526001600160a01b039091169160a08201808311911017610550576106869160a08201604052610e63565b600554600654604051636eb1769f60e11b81523060048201526001600160a01b039182166024820181905290969092909116602087604481845afa96871561033b576000976108f6575b50600435870187116108e05760209761071e610893946108819361085d9a6040519263095ea7b360e01b8e85015260248401526004350160448301526044825261071982610cf5565b610e63565b61081a6040518a80820152600c60408201526b2432b63637902937baba32b960a11b60608201526060815261075281610cf5565b6040519261075f84610cda565b600084526107de60526040518096613d0960c61b60208190840152600060288401526030830152600060388301526001600160801b031960a43560801b16604083015260ff60f81b60843560f81b166050830152600060518301526107ce815160209281938686019101610d93565b8101036032810187520185610d10565b61080e6107fb6040519788938f6040908601526060850191610e42565b601f199384848303016040850152610db6565b03908101855284610d10565b61086f60018060a01b0360015416976040519b8c9a8b998a99633df6a38560e11b8b52600160048c015260043560248c015260c060448c015260c48b0191610e42565b8881036003190160648a015291610e42565b85810360031901608487015290610db6565b8381036003190160a485015290610db6565b039134905af190811561033b576000916108ae575b50600355005b90506020813d6020116108d8575b816108c960209383610d10565b810103126101955751816108a8565b3d91506108bc565b634e487b7160e01b600052601160045260246000fd5b9096506020813d602011610922575b8161091260209383610d10565b81010312610195575195896106d0565b3d9150610905565b3461019557610100366003190112610195576001600160401b036004358181168103610195576024358281168103610195576044359280841684036101955760643593818516850361019557608435946001600160801b03861686036101955760a43560ff811681036101955760c435908115158092036101955760e4359485116101955761010f976100fb966109c76052973690600401610d4c565b94604051998a976001600160401b0360c01b809481809460c01b1660208c015260c01b1660288a015260c01b16603088015260c01b1660388601526001600160801b03199060801b16604085015260ff60f81b9060f81b16605084015260f81b6051830152610a3f8151809260208686019101610d93565b8101036032810184520182610d10565b34610195576060366003190112610195576001600160401b0360043581811161019557610a80903690600401610d4c565b5060243581811161019557610a99903690600401610d4c565b60443582811161019557610ab1903690600401610d4c565b50600180546001600160a01b0316330361019557610ad9602092838082518301019101611030565b908151838301206000604051610aee81610cda565b527fc5d2460186f7233c927e7db2dcc703c0e500b653ca82273b7bfad8045d85a47014610c9457815193841161055057610b29600254610e08565b601f8111610c2d575b5082601f8511600114610ba757938080610b889493610b7a97600093610b9c575b501b916000199060031b1c1916176002555b60405193849184808401526040830190610db6565b03601f198101845283610d10565b61010f604051928284938452830190610db6565b850151925088610b53565b601f1985169060026000527f405787fa12a823e0f2b7631cc41b3ba8828b3321ca811111fa75cd3aa3bb5ace9160005b818110610c185750918691610b7a97610b8896959410610bff575b5050811b01600255610b65565b84015160001960f88460031b161c191690558680610bf2565b85830151845592840192918601918601610bd7565b60026000527f405787fa12a823e0f2b7631cc41b3ba8828b3321ca811111fa75cd3aa3bb5ace601f860160051c810191858710610c8a575b601f0160051c019082905b828110610c7e575050610b32565b60008155018290610c70565b9091508190610c65565b6040516346b7545f60e11b815260048101849052601a60248201527f537472696e672073686f756c64206e6f7420626520656d7074790000000000006044820152606490fd5b602081019081106001600160401b0382111761055057604052565b608081019081106001600160401b0382111761055057604052565b90601f801991011681019081106001600160401b0382111761055057604052565b6001600160401b03811161055057601f01601f191660200190565b81601f8201121561019557803590610d6382610d31565b92610d716040519485610d10565b8284526020838301011161019557816000926020809301838601378301015290565b60005b838110610da65750506000910152565b8181015183820152602001610d96565b90602091610dcf81518092818552858086019101610d93565b601f01601f1916010190565b9181601f84011215610195578235916001600160401b038311610195576020838186019501011161019557565b90600182811c92168015610e38575b6020831014610e2257565b634e487b7160e01b600052602260045260246000fd5b91607f1691610e17565b908060209392818452848401376000828201840152601f01601f1916010190565b60018060a01b03169060405160408101908082106001600160401b0383111761055057610ef2916040526020938482527f5361666545524332303a206c6f772d6c6576656c2063616c6c206661696c6564858301526000808587829751910182855af13d15610f8f573d91610ed783610d31565b92610ee56040519485610d10565b83523d868885013e610f93565b805191821591848315610f64575b505050905015610f0d5750565b6084906040519062461bcd60e51b82526004820152602a60248201527f5361666545524332303a204552433230206f7065726174696f6e20646964206e6044820152691bdd081cdd58d8d9595960b21b6064820152fd5b919381809450010312610f8b57820151908115158203610f88575080388084610f00565b80fd5b5080fd5b6060915b91929015610ff55750815115610fa7575090565b3b15610fb05790565b60405162461bcd60e51b815260206004820152601d60248201527f416464726573733a2063616c6c20746f206e6f6e2d636f6e74726163740000006044820152606490fd5b8251909150156110085750805190602001fd5b60405162461bcd60e51b81526020600482015290819061102c906024830190610db6565b0390fd5b602081830312610195578051906001600160401b038211610195570181601f8201121561019557805161106281610d31565b926110706040519485610d10565b818452602082840101116101955761108e9160208085019101610d93565b9056fea2646970667358221220d2108459b1c4a5ff37c98051b591f0e24ab8cc891568d0dcf62e01053b9462d564736f6c63430008130033",
    "linkReferences": {}
  },
  "methodIdentifiers": {
    "ackMessage()": "fd25c725",
    "assetVault()": "f61ebc36",
    "gatewayContract()": "eb0cde1d",
    "getRequestMetadata(uint64,uint64,uint64,uint64,uint128,uint8,bool,string)": "2ee25c15",
    "greeting()": "ef690cc0",
    "iAck(uint256,bool,bytes)": "a4e21288",
    "iReceive(string,bytes,string)": "1aa6485a",
    "iSend(uint256,string,string,string,uint8,uint128)": "83511b7c",
    "lastEventIdentifier()": "d44aafee",
    "number()": "8381f58a",
    "owner()": "8da5cb5b",
    "routeToken()": "fbd5dfae",
    "setDappMetadata(string)": "ef15cbda"
  },
  "id": 110
}