{
  "abi": [
    {
      "inputs": [
        {
          "internalType": "address",
          "name": "gatewayAddress",
          "type": "address"
        },
        {
          "internalType": "address",
          "name": "routeTokenAddress",
          "type": "address"
        }
      ],
      "stateMutability": "nonpayable",
      "type": "constructor"
    },
    {
      "anonymous": false,
      "inputs": [
        {
          "indexed": false,
          "internalType": "uint256",
          "name": "amount",
          "type": "uint256"
        },
        {
          "indexed": true,
          "internalType": "address",
          "name": "sender",
          "type": "address"
        }
      ],
      "name": "AssetBurned",
      "type": "event"
    },
    {
      "anonymous": false,
      "inputs": [
        {
          "indexed": false,
          "internalType": "uint256",
          "name": "amount",
          "type": "uint256"
        },
        {
          "indexed": true,
          "internalType": "address",
          "name": "recipient",
          "type": "address"
        }
      ],
      "name": "AssetMinted",
      "type": "event"
    },
    {
      "inputs": [
        {
          "internalType": "uint256",
          "name": "amount",
          "type": "uint256"
        },
        {
          "internalType": "address",
          "name": "caller",
          "type": "address"
        }
      ],
      "name": "deposit",
      "outputs": [],
      "stateMutability": "nonpayable",
      "type": "function"
    },
    {
      "inputs": [],
      "name": "gateway",
      "outputs": [
        {
          "internalType": "address",
          "name": "",
          "type": "address"
        }
      ],
      "stateMutability": "view",
      "type": "function"
    },
    {
      "inputs": [
        {
          "internalType": "uint256",
          "name": "amount",
          "type": "uint256"
        },
        {
          "internalType": "address",
          "name": "recipient",
          "type": "address"
        }
      ],
      "name": "handleWithdraw",
      "outputs": [],
      "stateMutability": "nonpayable",
      "type": "function"
    },
    {
      "inputs": [],
      "name": "routeToken",
      "outputs": [
        {
          "internalType": "contract ERC20PresetMinterPauser",
          "name": "",
          "type": "address"
        }
      ],
      "stateMutability": "view",
      "type": "function"
    }
  ],
  "bytecode": {
    "object": "0x60c060405234801561001057600080fd5b5060405161047e38038061047e83398101604081905261002f91610067565b60016000556001600160a01b039182166080521660a05261009a565b80516001600160a01b038116811461006257600080fd5b919050565b6000806040838503121561007a57600080fd5b6100838361004b565b91506100916020840161004b565b90509250929050565b60805160a0516103a66100d86000396000818160c101528181610171015261029d01526000818160560152818160ee015261021f01526103a66000f3fe608060405234801561001057600080fd5b506004361061004c5760003560e01c8063116191b6146100515780633fdb071d146100945780636e553f65146100a9578063fbd5dfae146100bc575b600080fd5b6100787f000000000000000000000000000000000000000000000000000000000000000081565b6040516001600160a01b03909116815260200160405180910390f35b6100a76100a2366004610334565b6100e3565b005b6100a76100b7366004610334565b610214565b6100787f000000000000000000000000000000000000000000000000000000000000000081565b336001600160a01b037f0000000000000000000000000000000000000000000000000000000000000000161461014b5760405162461bcd60e51b8152602060048201526008602482015267214761746577617960c01b60448201526064015b60405180910390fd5b6040516340c10f1960e01b81526001600160a01b038281166004830152602482018490527f000000000000000000000000000000000000000000000000000000000000000016906340c10f1990604401600060405180830381600087803b1580156101b557600080fd5b505af11580156101c9573d6000803e3d6000fd5b50505050806001600160a01b03167f55f284809f4c5b7377fbe62f2feeb9686e3834dcae5f3ca955140fe6547cd3558360405161020891815260200190565b60405180910390a25050565b336001600160a01b037f000000000000000000000000000000000000000000000000000000000000000016146102775760405162461bcd60e51b8152602060048201526008602482015267214761746577617960c01b6044820152606401610142565b60405163079cc67960e41b81526001600160a01b038281166004830152602482018490527f000000000000000000000000000000000000000000000000000000000000000016906379cc679090604401600060405180830381600087803b1580156102e157600080fd5b505af11580156102f5573d6000803e3d6000fd5b50505050806001600160a01b03167fefb2d9915fdbc2714cdc6771e2791877d24c2b3426b096a8be565adb7b3774d38360405161020891815260200190565b6000806040838503121561034757600080fd5b8235915060208301356001600160a01b038116811461036557600080fd5b80915050925092905056fea26469706673582212202e1c2c6d266aa66a0261e37e5e0d8ecc23c03576cc4cc3521c55ade5eefbdc4b64736f6c63430008130033",
    "linkReferences": {}
  },
  "methodIdentifiers": {
    "deposit(uint256,address)": "6e553f65",
    "gateway()": "116191b6",
    "handleWithdraw(uint256,address)": "3fdb071d",
    "routeToken()": "fbd5dfae"
  },
  "id": 71
}