{
  "address": "0xA82f14980559567F6d3B4DFFa3531045F1eDa522",
  "abi": [
    {
      "inputs": [
        {
          "internalType": "string",
          "name": "_baseUri",
          "type": "string"
        },
        {
          "internalType": "address",
          "name": "trustedForwarder",
          "type": "address"
        },
        {
          "internalType": "address payable",
          "name": "gatewayAddress",
          "type": "address"
        }
      ],
      "stateMutability": "nonpayable",
      "type": "constructor"
    },
    {
      "inputs": [],
      "name": "CrossChainNotSupported",
      "type": "error"
    },
    {
      "inputs": [],
      "name": "InsufficientBalance",
      "type": "error"
    },
    {
      "inputs": [],
      "name": "InvalidChain",
      "type": "error"
    },
    {
      "anonymous": false,
      "inputs": [
        {
          "indexed": true,
          "internalType": "address",
          "name": "account",
          "type": "address"
        },
        {
          "indexed": true,
          "internalType": "address",
          "name": "operator",
          "type": "address"
        },
        {
          "indexed": false,
          "internalType": "bool",
          "name": "approved",
          "type": "bool"
        }
      ],
      "name": "ApprovalForAll",
      "type": "event"
    },
    {
      "anonymous": false,
      "inputs": [
        {
          "indexed": true,
          "internalType": "address",
          "name": "previousOwner",
          "type": "address"
        },
        {
          "indexed": true,
          "internalType": "address",
          "name": "newOwner",
          "type": "address"
        }
      ],
      "name": "OwnershipTransferred",
      "type": "event"
    },
    {
      "anonymous": false,
      "inputs": [
        {
          "indexed": true,
          "internalType": "address",
          "name": "operator",
          "type": "address"
        },
        {
          "indexed": true,
          "internalType": "address",
          "name": "from",
          "type": "address"
        },
        {
          "indexed": true,
          "internalType": "address",
          "name": "to",
          "type": "address"
        },
        {
          "indexed": false,
          "internalType": "uint256[]",
          "name": "ids",
          "type": "uint256[]"
        },
        {
          "indexed": false,
          "internalType": "uint256[]",
          "name": "values",
          "type": "uint256[]"
        }
      ],
      "name": "TransferBatch",
      "type": "event"
    },
    {
      "anonymous": false,
      "inputs": [
        {
          "indexed": true,
          "internalType": "address",
          "name": "operator",
          "type": "address"
        },
        {
          "indexed": true,
          "internalType": "address",
          "name": "from",
          "type": "address"
        },
        {
          "indexed": true,
          "internalType": "address",
          "name": "to",
          "type": "address"
        },
        {
          "indexed": false,
          "internalType": "uint256",
          "name": "id",
          "type": "uint256"
        },
        {
          "indexed": false,
          "internalType": "uint256",
          "name": "value",
          "type": "uint256"
        }
      ],
      "name": "TransferSingle",
      "type": "event"
    },
    {
      "anonymous": false,
      "inputs": [
        {
          "indexed": false,
          "internalType": "string",
          "name": "value",
          "type": "string"
        },
        {
          "indexed": true,
          "internalType": "uint256",
          "name": "id",
          "type": "uint256"
        }
      ],
      "name": "URI",
      "type": "event"
    },
    {
      "inputs": [
        {
          "internalType": "address",
          "name": "account",
          "type": "address"
        },
        {
          "internalType": "uint256",
          "name": "id",
          "type": "uint256"
        }
      ],
      "name": "balanceOf",
      "outputs": [
        {
          "internalType": "uint256",
          "name": "",
          "type": "uint256"
        }
      ],
      "stateMutability": "view",
      "type": "function"
    },
    {
      "inputs": [
        {
          "internalType": "address[]",
          "name": "accounts",
          "type": "address[]"
        },
        {
          "internalType": "uint256[]",
          "name": "ids",
          "type": "uint256[]"
        }
      ],
      "name": "balanceOfBatch",
      "outputs": [
        {
          "internalType": "uint256[]",
          "name": "",
          "type": "uint256[]"
        }
      ],
      "stateMutability": "view",
      "type": "function"
    },
    {
      "inputs": [],
      "name": "baseUri",
      "outputs": [
        {
          "internalType": "string",
          "name": "",
          "type": "string"
        }
      ],
      "stateMutability": "view",
      "type": "function"
    },
    {
      "inputs": [
        {
          "internalType": "string",
          "name": "",
          "type": "string"
        }
      ],
      "name": "chains",
      "outputs": [
        {
          "internalType": "string",
          "name": "",
          "type": "string"
        }
      ],
      "stateMutability": "view",
      "type": "function"
    },
    {
      "inputs": [
        {
          "internalType": "string",
          "name": "destinationChain",
          "type": "string"
        },
        {
          "internalType": "uint256",
          "name": "tokenId",
          "type": "uint256"
        },
        {
          "internalType": "uint256",
          "name": "amount",
          "type": "uint256"
        },
        {
          "internalType": "bytes",
          "name": "requestMetadata",
          "type": "bytes"
        }
      ],
      "name": "crossChainTransfer",
      "outputs": [],
      "stateMutability": "payable",
      "type": "function"
    },
    {
      "inputs": [],
      "name": "gatewayContract",
      "outputs": [
        {
          "internalType": "contract IGateway",
          "name": "",
          "type": "address"
        }
      ],
      "stateMutability": "view",
      "type": "function"
    },
    {
      "inputs": [
        {
          "internalType": "uint64",
          "name": "destGasLimit",
          "type": "uint64"
        },
        {
          "internalType": "uint64",
          "name": "destGasPrice",
          "type": "uint64"
        },
        {
          "internalType": "uint64",
          "name": "ackGasLimit",
          "type": "uint64"
        },
        {
          "internalType": "uint64",
          "name": "ackGasPrice",
          "type": "uint64"
        },
        {
          "internalType": "uint128",
          "name": "relayerFees",
          "type": "uint128"
        },
        {
          "internalType": "uint8",
          "name": "ackType",
          "type": "uint8"
        },
        {
          "internalType": "bool",
          "name": "isReadCall",
          "type": "bool"
        },
        {
          "internalType": "bytes",
          "name": "asmAddress",
          "type": "bytes"
        }
      ],
      "name": "getRequestMetadata",
      "outputs": [
        {
          "internalType": "bytes",
          "name": "",
          "type": "bytes"
        }
      ],
      "stateMutability": "pure",
      "type": "function"
    },
    {
      "inputs": [
        {
          "internalType": "uint256",
          "name": "requestIdentifier",
          "type": "uint256"
        },
        {
          "internalType": "bool",
          "name": "execFlag",
          "type": "bool"
        },
        {
          "internalType": "bytes",
          "name": "execData",
          "type": "bytes"
        }
      ],
      "name": "iAck",
      "outputs": [],
      "stateMutability": "nonpayable",
      "type": "function"
    },
    {
      "inputs": [
        {
          "internalType": "string",
          "name": "requestSender",
          "type": "string"
        },
        {
          "internalType": "bytes",
          "name": "packet",
          "type": "bytes"
        },
        {
          "internalType": "string",
          "name": "srcChainId",
          "type": "string"
        }
      ],
      "name": "iReceive",
      "outputs": [
        {
          "internalType": "bytes",
          "name": "",
          "type": "bytes"
        }
      ],
      "stateMutability": "nonpayable",
      "type": "function"
    },
    {
      "inputs": [
        {
          "internalType": "address",
          "name": "account",
          "type": "address"
        },
        {
          "internalType": "address",
          "name": "operator",
          "type": "address"
        }
      ],
      "name": "isApprovedForAll",
      "outputs": [
        {
          "internalType": "bool",
          "name": "",
          "type": "bool"
        }
      ],
      "stateMutability": "view",
      "type": "function"
    },
    {
      "inputs": [
        {
          "internalType": "address",
          "name": "forwarder",
          "type": "address"
        }
      ],
      "name": "isTrustedForwarder",
      "outputs": [
        {
          "internalType": "bool",
          "name": "",
          "type": "bool"
        }
      ],
      "stateMutability": "view",
      "type": "function"
    },
    {
      "inputs": [
        {
          "internalType": "uint256",
          "name": "amount",
          "type": "uint256"
        }
      ],
      "name": "mint",
      "outputs": [],
      "stateMutability": "nonpayable",
      "type": "function"
    },
    {
      "inputs": [
        {
          "internalType": "uint256",
          "name": "id",
          "type": "uint256"
        },
        {
          "internalType": "uint256",
          "name": "amount",
          "type": "uint256"
        }
      ],
      "name": "mintMore",
      "outputs": [],
      "stateMutability": "nonpayable",
      "type": "function"
    },
    {
      "inputs": [],
      "name": "owner",
      "outputs": [
        {
          "internalType": "address",
          "name": "",
          "type": "address"
        }
      ],
      "stateMutability": "view",
      "type": "function"
    },
    {
      "inputs": [],
      "name": "renounceOwnership",
      "outputs": [],
      "stateMutability": "nonpayable",
      "type": "function"
    },
    {
      "inputs": [
        {
          "internalType": "address",
          "name": "from",
          "type": "address"
        },
        {
          "internalType": "address",
          "name": "to",
          "type": "address"
        },
        {
          "internalType": "uint256[]",
          "name": "ids",
          "type": "uint256[]"
        },
        {
          "internalType": "uint256[]",
          "name": "amounts",
          "type": "uint256[]"
        },
        {
          "internalType": "bytes",
          "name": "data",
          "type": "bytes"
        }
      ],
      "name": "safeBatchTransferFrom",
      "outputs": [],
      "stateMutability": "nonpayable",
      "type": "function"
    },
    {
      "inputs": [
        {
          "internalType": "address",
          "name": "from",
          "type": "address"
        },
        {
          "internalType": "address",
          "name": "to",
          "type": "address"
        },
        {
          "internalType": "uint256",
          "name": "id",
          "type": "uint256"
        },
        {
          "internalType": "uint256",
          "name": "amount",
          "type": "uint256"
        },
        {
          "internalType": "bytes",
          "name": "data",
          "type": "bytes"
        }
      ],
      "name": "safeTransferFrom",
      "outputs": [],
      "stateMutability": "nonpayable",
      "type": "function"
    },
    {
      "inputs": [
        {
          "internalType": "address",
          "name": "operator",
          "type": "address"
        },
        {
          "internalType": "bool",
          "name": "approved",
          "type": "bool"
        }
      ],
      "name": "setApprovalForAll",
      "outputs": [],
      "stateMutability": "nonpayable",
      "type": "function"
    },
    {
      "inputs": [
        {
          "internalType": "string",
          "name": "chain",
          "type": "string"
        },
        {
          "internalType": "string",
          "name": "addr",
          "type": "string"
        }
      ],
      "name": "setChain",
      "outputs": [],
      "stateMutability": "nonpayable",
      "type": "function"
    },
    {
      "inputs": [
        {
          "internalType": "string",
          "name": "FeePayer",
          "type": "string"
        }
      ],
      "name": "setDappMetadata",
      "outputs": [],
      "stateMutability": "nonpayable",
      "type": "function"
    },
    {
      "inputs": [
        {
          "internalType": "address",
          "name": "gateway",
          "type": "address"
        }
      ],
      "name": "setGateway",
      "outputs": [],
      "stateMutability": "nonpayable",
      "type": "function"
    },
    {
      "inputs": [
        {
          "internalType": "bytes4",
          "name": "interfaceId",
          "type": "bytes4"
        }
      ],
      "name": "supportsInterface",
      "outputs": [
        {
          "internalType": "bool",
          "name": "",
          "type": "bool"
        }
      ],
      "stateMutability": "view",
      "type": "function"
    },
    {
      "inputs": [
        {
          "internalType": "address",
          "name": "newOwner",
          "type": "address"
        }
      ],
      "name": "transferOwnership",
      "outputs": [],
      "stateMutability": "nonpayable",
      "type": "function"
    },
    {
      "inputs": [
        {
          "internalType": "uint256",
          "name": "id",
          "type": "uint256"
        }
      ],
      "name": "uri",
      "outputs": [
        {
          "internalType": "string",
          "name": "",
          "type": "string"
        }
      ],
      "stateMutability": "view",
      "type": "function"
    },
    {
      "inputs": [],
      "name": "utilCount",
      "outputs": [
        {
          "internalType": "uint256",
          "name": "",
          "type": "uint256"
        }
      ],
      "stateMutability": "view",
      "type": "function"
    }
  ],
  "transactionHash": "0x3826ccf0de2f5c7e8d8b0fe56f32b42d9c61b4d9cb6ee198b0535e876140dc20",
  "args": [
    "https://www.example.com/utils/",
    "0xa9D6066268E43aa2DeaFEda3655Ea7f8217945FB",
    "0xcAa6223D0d41FB27d6FC81428779751317FC24cB"
  ],
  "numDeployments": 1,
  "solcInputHash": "f4ab0b35c1b1a7a3a674a3e4df2f63a7",
  "bytecode": "0x60a06040523480156200001157600080fd5b5060405162002df038038062002df083398101604081905262000034916200023d565b6001600160a01b038216608052826200004d81620000a1565b50620000626200005c620000ba565b620000d6565b82516200007790600490602086019062000164565b50600680546001600160a01b0319166001600160a01b0392909216919091179055506200037c9050565b8051620000b690600290602084019062000164565b5050565b6000620000d16200012860201b62000f131760201c565b905090565b600380546001600160a01b038381166001600160a01b0319831681179093556040519116919082907f8be0079c531659141344cd1fd0a4f28419497f9722a3daafe3b4186f6b6457e090600090a35050565b6080516000906001600160a01b031633036200014b575060131936013560601c90565b620000d16200016060201b62000f5f1760201c565b3390565b828054620001729062000340565b90600052602060002090601f016020900481019282620001965760008555620001e1565b82601f10620001b157805160ff1916838001178555620001e1565b82800160010185558215620001e1579182015b82811115620001e1578251825591602001919060010190620001c4565b50620001ef929150620001f3565b5090565b5b80821115620001ef5760008155600101620001f4565b634e487b7160e01b600052604160045260246000fd5b80516001600160a01b03811681146200023857600080fd5b919050565b6000806000606084860312156200025357600080fd5b83516001600160401b03808211156200026b57600080fd5b818601915086601f8301126200028057600080fd5b8151818111156200029557620002956200020a565b604051601f8201601f19908116603f01168101908382118183101715620002c057620002c06200020a565b81604052828152602093508984848701011115620002dd57600080fd5b600091505b82821015620003015784820184015181830185015290830190620002e2565b82821115620003135760008484830101525b96506200032591505086820162000220565b93505050620003376040850162000220565b90509250925092565b600181811c908216806200035557607f821691505b6020821081036200037657634e487b7160e01b600052602260045260246000fd5b50919050565b608051612a516200039f600039600081816102c60152610f170152612a516000f3fe6080604052600436106101655760003560e01c806390646b4a116100d1578063dd9b0a271161008a578063ef15cbda11610064578063ef15cbda14610484578063f242432a146104a4578063f2fde38b146104c4578063f567ad9d146104e457600080fd5b8063dd9b0a2714610408578063e985e9c51461041b578063eb0cde1d1461046457600080fd5b806390646b4a1461035d5780639abc83201461037d578063a0712d6814610392578063a22cb465146103b2578063a4e21288146103d2578063baacbe9b146103f257600080fd5b80634e1273f4116101235780634e1273f41461025c5780634f7c055e14610289578063572b6c05146102a9578063715018a6146102f65780638a39f0f71461030b5780638da5cb5b1461032b57600080fd5b8062fdd58e1461016a57806301ffc9a71461019d5780630e89341c146101cd5780631aa6485a146101fa5780632eb2c2d61461021a57806337bf9c411461023c575b600080fd5b34801561017657600080fd5b5061018a610185366004611bd0565b610504565b6040519081526020015b60405180910390f35b3480156101a957600080fd5b506101bd6101b8366004611c12565b61059a565b6040519015158152602001610194565b3480156101d957600080fd5b506101ed6101e8366004611c2f565b6105ec565b6040516101949190611ca0565b34801561020657600080fd5b506101ed610215366004611d68565b610620565b34801561022657600080fd5b5061023a610235366004611e83565b610772565b005b34801561024857600080fd5b506101ed610257366004611f5c565b6107d0565b34801561026857600080fd5b5061027c610277366004612023565b610811565b604051610194919061212a565b34801561029557600080fd5b5061023a6102a436600461213d565b61093a565b3480156102b557600080fd5b506101bd6102c436600461215f565b7f00000000000000000000000000000000000000000000000000000000000000006001600160a01b0390811691161490565b34801561030257600080fd5b5061023a610968565b34801561031757600080fd5b506101ed61032636600461217c565b61097c565b34801561033757600080fd5b506003546001600160a01b03165b6040516001600160a01b039091168152602001610194565b34801561036957600080fd5b5061023a61037836600461215f565b610a21565b34801561038957600080fd5b506101ed610a4b565b34801561039e57600080fd5b5061023a6103ad366004611c2f565b610a58565b3480156103be57600080fd5b5061023a6103cd3660046121b8565b610aa0565b3480156103de57600080fd5b5061023a6103ed3660046121ed565b505050565b3480156103fe57600080fd5b5061018a60055481565b61023a610416366004612281565b610ab2565b34801561042757600080fd5b506101bd610436366004612303565b6001600160a01b03918216600090815260016020908152604080832093909416825291909152205460ff1690565b34801561047057600080fd5b50600654610345906001600160a01b031681565b34801561049057600080fd5b5061023a61049f36600461217c565b610d91565b3480156104b057600080fd5b5061023a6104bf36600461233c565b610e0c565b3480156104d057600080fd5b5061023a6104df36600461215f565b610e63565b3480156104f057600080fd5b5061023a6104ff3660046123a4565b610ed9565b60006001600160a01b0383166105745760405162461bcd60e51b815260206004820152602a60248201527f455243313135353a2061646472657373207a65726f206973206e6f742061207660448201526930b634b21037bbb732b960b11b60648201526084015b60405180910390fd5b506000908152602081815260408083206001600160a01b03949094168352929052205490565b60006001600160e01b03198216636cdb3d1360e11b14806105cb57506001600160e01b031982166303a24d0760e21b145b806105e657506301ffc9a760e01b6001600160e01b03198316145b92915050565b606060046105f983610f63565b60405160200161060a9291906124df565b6040516020818303038152906040529050919050565b6006546060906001600160a01b031661064c5760405163358ce81d60e21b815260040160405180910390fd5b6006546001600160a01b031633146106955760405162461bcd60e51b815260206004820152600c60248201526b6f6e6c79206761746577617960a01b604482015260640161056b565b836040516020016106a69190612504565b604051602081830303815290604052805190602001206007836040516106cc9190612504565b90815260200160405180910390206040516020016106ea9190612520565b604051602081830303815290604052805190602001201461071e5760405163057f3fa760e51b815260040160405180910390fd5b600080600085806020019051810190610737919061252c565b92509250925061075881848460405180602001604052806000815250610fa7565b505060408051602081019091526000815295945050505050565b61077a6110c6565b6001600160a01b0316856001600160a01b031614806107a057506107a0856104366110c6565b6107bc5760405162461bcd60e51b815260040161056b90612565565b6107c985858585856110d0565b5050505050565b6060600089898989898989896040516020016107f39897969594939291906125b3565b60408051808303601f190181529190529a9950505050505050505050565b606081518351146108765760405162461bcd60e51b815260206004820152602960248201527f455243313135353a206163636f756e747320616e6420696473206c656e677468604482015268040dad2e6dac2e8c6d60bb1b606482015260840161056b565b600083516001600160401b0381111561089157610891611cb3565b6040519080825280602002602001820160405280156108ba578160200160208202803683370190505b50905060005b8451811015610932576109058582815181106108de576108de61263e565b60200260200101518583815181106108f8576108f861263e565b6020026020010151610504565b8282815181106109175761091761263e565b602090810291909101015261092b8161266a565b90506108c0565b509392505050565b6109426112b8565b61096461094d6110c6565b838360405180602001604052806000815250610fa7565b5050565b6109706112b8565b61097a6000611331565b565b8051602081830181018051600782529282019190930120915280546109a09061240c565b80601f01602080910402602001604051908101604052809291908181526020018280546109cc9061240c565b8015610a195780601f106109ee57610100808354040283529160200191610a19565b820191906000526020600020905b8154815290600101906020018083116109fc57829003601f168201915b505050505081565b610a296112b8565b600680546001600160a01b0319166001600160a01b0392909216919091179055565b600480546109a09061240c565b610a606112b8565b600160056000828254610a739190612683565b90915550610a9d9050610a846110c6565b6005548360405180602001604052806000815250610fa7565b50565b610964610aab6110c6565b8383611383565b6006546001600160a01b0316610adb5760405163358ce81d60e21b815260040160405180910390fd5b600060078787604051610aef92919061269b565b90815260200160405180910390208054610b089061240c565b80601f0160208091040260200160405190810160405280929190818152602001828054610b349061240c565b8015610b815780601f10610b5657610100808354040283529160200191610b81565b820191906000526020600020905b815481529060010190602001808311610b6457829003601f168201915b505050505090508051600003610baa5760405163057f3fa760e51b815260040160405180910390fd5b610bbb610bb56110c6565b86610504565b841115610bdb57604051631e9acf1760e31b815260040160405180910390fd5b610bed610be66110c6565b8686611463565b60008585610bf96110c6565b6040805160208101949094528301919091526001600160a01b03166060820152608001604051602081830303815290604052905060008282604051602001610c429291906126ab565b60408051601f198184030181529190526006549091506001600160a01b031663ef15cbda610c81610c716110c6565b6001600160a01b031660146115ea565b6040518263ffffffff1660e01b8152600401610c9d9190611ca0565b6020604051808303816000875af1158015610cbc573d6000803e3d6000fd5b505050506040513d601f19601f82011682018060405250810190610ce091906126d9565b50600660009054906101000a90046001600160a01b03166001600160a01b0316637bed470a3460016000604051806020016040528060008152508e8e8c8c8a6040518a63ffffffff1660e01b8152600401610d4298979695949392919061271b565b60206040518083038185885af1158015610d60573d6000803e3d6000fd5b50505050506040513d601f19601f82011682018060405250810190610d8591906126d9565b50505050505050505050565b610d996112b8565b60065460405163778ae5ed60e11b81526001600160a01b039091169063ef15cbda90610dc9908490600401611ca0565b6020604051808303816000875af1158015610de8573d6000803e3d6000fd5b505050506040513d601f19601f8201168201806040525081019061096491906126d9565b610e146110c6565b6001600160a01b0316856001600160a01b03161480610e3a5750610e3a856104366110c6565b610e565760405162461bcd60e51b815260040161056b90612565565b6107c9858585858561178c565b610e6b6112b8565b6001600160a01b038116610ed05760405162461bcd60e51b815260206004820152602660248201527f4f776e61626c653a206e6577206f776e657220697320746865207a65726f206160448201526564647265737360d01b606482015260840161056b565b610a9d81611331565b610ee16112b8565b8181600785604051610ef39190612504565b908152604051908190036020019020610f0d929091611b22565b50505050565b60007f00000000000000000000000000000000000000000000000000000000000000006001600160a01b03163303610f52575060131936013560601c90565b503390565b905090565b90565b3390565b606060a06040510180604052602081039150506000815280825b600183039250600a81066030018353600a900480610f7d5750819003601f19909101908152919050565b6001600160a01b0384166110075760405162461bcd60e51b815260206004820152602160248201527f455243313135353a206d696e7420746f20746865207a65726f206164647265736044820152607360f81b606482015260840161056b565b60006110116110c6565b9050600061101e856118c1565b9050600061102b856118c1565b90506000868152602081815260408083206001600160a01b038b1684529091528120805487929061105d908490612683565b909155505060408051878152602081018790526001600160a01b03808a1692600092918716917fc3d58168c5ae7397731d063d5bbf3d657854427343f4c083240f7aacaa2d0f62910160405180910390a46110bd8360008989898961190c565b50505050505050565b6000610f57610f13565b81518351146111325760405162461bcd60e51b815260206004820152602860248201527f455243313135353a2069647320616e6420616d6f756e7473206c656e677468206044820152670dad2e6dac2e8c6d60c31b606482015260840161056b565b6001600160a01b0384166111585760405162461bcd60e51b815260040161056b90612785565b60006111626110c6565b905060005b845181101561124a5760008582815181106111845761118461263e565b6020026020010151905060008583815181106111a2576111a261263e565b602090810291909101810151600084815280835260408082206001600160a01b038e1683529093529190912054909150818110156111f25760405162461bcd60e51b815260040161056b906127ca565b6000838152602081815260408083206001600160a01b038e8116855292528083208585039055908b1682528120805484929061122f908490612683565b92505081905550505050806112439061266a565b9050611167565b50846001600160a01b0316866001600160a01b0316826001600160a01b03167f4a39dc06d4c0dbc64b70af90fd698a233a518aa5d07e595d983b8c0526c8f7fb878760405161129a929190612814565b60405180910390a46112b0818787878787611a67565b505050505050565b6112c06110c6565b6001600160a01b03166112db6003546001600160a01b031690565b6001600160a01b03161461097a5760405162461bcd60e51b815260206004820181905260248201527f4f776e61626c653a2063616c6c6572206973206e6f7420746865206f776e6572604482015260640161056b565b600380546001600160a01b038381166001600160a01b0319831681179093556040519116919082907f8be0079c531659141344cd1fd0a4f28419497f9722a3daafe3b4186f6b6457e090600090a35050565b816001600160a01b0316836001600160a01b0316036113f65760405162461bcd60e51b815260206004820152602960248201527f455243313135353a2073657474696e6720617070726f76616c20737461747573604482015268103337b91039b2b63360b91b606482015260840161056b565b6001600160a01b03838116600081815260016020908152604080832094871680845294825291829020805460ff191686151590811790915591519182527f17307eab39ab6107e8899845ad3d59bd9653f200f220920489ca2b5937696c31910160405180910390a3505050565b6001600160a01b0383166114c55760405162461bcd60e51b815260206004820152602360248201527f455243313135353a206275726e2066726f6d20746865207a65726f206164647260448201526265737360e81b606482015260840161056b565b60006114cf6110c6565b905060006114dc846118c1565b905060006114e9846118c1565b60408051602080820183526000918290528882528181528282206001600160a01b038b16835290522054909150848110156115725760405162461bcd60e51b8152602060048201526024808201527f455243313135353a206275726e20616d6f756e7420657863656564732062616c604482015263616e636560e01b606482015260840161056b565b6000868152602081815260408083206001600160a01b038b81168086529184528285208a8703905582518b81529384018a90529092908816917fc3d58168c5ae7397731d063d5bbf3d657854427343f4c083240f7aacaa2d0f62910160405180910390a46040805160208101909152600090526110bd565b606060006115f9836002612839565b611604906002612683565b6001600160401b0381111561161b5761161b611cb3565b6040519080825280601f01601f191660200182016040528015611645576020820181803683370190505b509050600360fc1b816000815181106116605761166061263e565b60200101906001600160f81b031916908160001a905350600f60fb1b8160018151811061168f5761168f61263e565b60200101906001600160f81b031916908160001a90535060006116b3846002612839565b6116be906001612683565b90505b6001811115611736576f181899199a1a9b1b9c1cb0b131b232b360811b85600f16601081106116f2576116f261263e565b1a60f81b8282815181106117085761170861263e565b60200101906001600160f81b031916908160001a90535060049490941c9361172f81612858565b90506116c1565b5083156117855760405162461bcd60e51b815260206004820181905260248201527f537472696e67733a20686578206c656e67746820696e73756666696369656e74604482015260640161056b565b9392505050565b6001600160a01b0384166117b25760405162461bcd60e51b815260040161056b90612785565b60006117bc6110c6565b905060006117c9856118c1565b905060006117d6856118c1565b90506000868152602081815260408083206001600160a01b038c168452909152902054858110156118195760405162461bcd60e51b815260040161056b906127ca565b6000878152602081815260408083206001600160a01b038d8116855292528083208985039055908a16825281208054889290611856908490612683565b909155505060408051888152602081018890526001600160a01b03808b16928c821692918816917fc3d58168c5ae7397731d063d5bbf3d657854427343f4c083240f7aacaa2d0f62910160405180910390a46118b6848a8a8a8a8a61190c565b505050505050505050565b604080516001808252818301909252606091600091906020808301908036833701905050905082816000815181106118fb576118fb61263e565b602090810291909101015292915050565b6001600160a01b0384163b156112b05760405163f23a6e6160e01b81526001600160a01b0385169063f23a6e6190611950908990899088908890889060040161286f565b6020604051808303816000875af192505050801561198b575060408051601f3d908101601f19168201909252611988918101906128b4565b60015b611a37576119976128d1565b806308c379a0036119d057506119ab6128ec565b806119b657506119d2565b8060405162461bcd60e51b815260040161056b9190611ca0565b505b60405162461bcd60e51b815260206004820152603460248201527f455243313135353a207472616e7366657220746f206e6f6e2d455243313135356044820152732932b1b2b4bb32b91034b6b83632b6b2b73a32b960611b606482015260840161056b565b6001600160e01b0319811663f23a6e6160e01b146110bd5760405162461bcd60e51b815260040161056b90612975565b6001600160a01b0384163b156112b05760405163bc197c8160e01b81526001600160a01b0385169063bc197c8190611aab90899089908890889088906004016129bd565b6020604051808303816000875af1925050508015611ae6575060408051601f3d908101601f19168201909252611ae3918101906128b4565b60015b611af2576119976128d1565b6001600160e01b0319811663bc197c8160e01b146110bd5760405162461bcd60e51b815260040161056b90612975565b828054611b2e9061240c565b90600052602060002090601f016020900481019282611b505760008555611b96565b82601f10611b695782800160ff19823516178555611b96565b82800160010185558215611b96579182015b82811115611b96578235825591602001919060010190611b7b565b50611ba2929150611ba6565b5090565b5b80821115611ba25760008155600101611ba7565b6001600160a01b0381168114610a9d57600080fd5b60008060408385031215611be357600080fd5b8235611bee81611bbb565b946020939093013593505050565b6001600160e01b031981168114610a9d57600080fd5b600060208284031215611c2457600080fd5b813561178581611bfc565b600060208284031215611c4157600080fd5b5035919050565b60005b83811015611c63578181015183820152602001611c4b565b83811115610f0d5750506000910152565b60008151808452611c8c816020860160208601611c48565b601f01601f19169290920160200192915050565b6020815260006117856020830184611c74565b634e487b7160e01b600052604160045260246000fd5b601f8201601f191681016001600160401b0381118282101715611cee57611cee611cb3565b6040525050565b600082601f830112611d0657600080fd5b81356001600160401b03811115611d1f57611d1f611cb3565b604051611d36601f8301601f191660200182611cc9565b818152846020838601011115611d4b57600080fd5b816020850160208301376000918101602001919091529392505050565b600080600060608486031215611d7d57600080fd5b83356001600160401b0380821115611d9457600080fd5b611da087838801611cf5565b94506020860135915080821115611db657600080fd5b611dc287838801611cf5565b93506040860135915080821115611dd857600080fd5b50611de586828701611cf5565b9150509250925092565b60006001600160401b03821115611e0857611e08611cb3565b5060051b60200190565b600082601f830112611e2357600080fd5b81356020611e3082611def565b604051611e3d8282611cc9565b83815260059390931b8501820192828101915086841115611e5d57600080fd5b8286015b84811015611e785780358352918301918301611e61565b509695505050505050565b600080600080600060a08688031215611e9b57600080fd5b8535611ea681611bbb565b94506020860135611eb681611bbb565b935060408601356001600160401b0380821115611ed257600080fd5b611ede89838a01611e12565b94506060880135915080821115611ef457600080fd5b611f0089838a01611e12565b93506080880135915080821115611f1657600080fd5b50611f2388828901611cf5565b9150509295509295909350565b80356001600160401b0381168114611f4757600080fd5b919050565b80358015158114611f4757600080fd5b600080600080600080600080610100898b031215611f7957600080fd5b611f8289611f30565b9750611f9060208a01611f30565b9650611f9e60408a01611f30565b9550611fac60608a01611f30565b945060808901356001600160801b0381168114611fc857600080fd5b935060a089013560ff81168114611fde57600080fd5b9250611fec60c08a01611f4c565b915060e08901356001600160401b0381111561200757600080fd5b6120138b828c01611cf5565b9150509295985092959890939650565b6000806040838503121561203657600080fd5b82356001600160401b038082111561204d57600080fd5b818501915085601f83011261206157600080fd5b8135602061206e82611def565b60405161207b8282611cc9565b83815260059390931b850182019282810191508984111561209b57600080fd5b948201945b838610156120c25785356120b381611bbb565b825294820194908201906120a0565b965050860135925050808211156120d857600080fd5b506120e585828601611e12565b9150509250929050565b600081518084526020808501945080840160005b8381101561211f57815187529582019590820190600101612103565b509495945050505050565b60208152600061178560208301846120ef565b6000806040838503121561215057600080fd5b50508035926020909101359150565b60006020828403121561217157600080fd5b813561178581611bbb565b60006020828403121561218e57600080fd5b81356001600160401b038111156121a457600080fd5b6121b084828501611cf5565b949350505050565b600080604083850312156121cb57600080fd5b82356121d681611bbb565b91506121e460208401611f4c565b90509250929050565b60008060006060848603121561220257600080fd5b8335925061221260208501611f4c565b915060408401356001600160401b0381111561222d57600080fd5b611de586828701611cf5565b60008083601f84011261224b57600080fd5b5081356001600160401b0381111561226257600080fd5b60208301915083602082850101111561227a57600080fd5b9250929050565b6000806000806000806080878903121561229a57600080fd5b86356001600160401b03808211156122b157600080fd5b6122bd8a838b01612239565b9098509650602089013595506040890135945060608901359150808211156122e457600080fd5b506122f189828a01612239565b979a9699509497509295939492505050565b6000806040838503121561231657600080fd5b823561232181611bbb565b9150602083013561233181611bbb565b809150509250929050565b600080600080600060a0868803121561235457600080fd5b853561235f81611bbb565b9450602086013561236f81611bbb565b9350604086013592506060860135915060808601356001600160401b0381111561239857600080fd5b611f2388828901611cf5565b6000806000604084860312156123b957600080fd5b83356001600160401b03808211156123d057600080fd5b6123dc87838801611cf5565b945060208601359150808211156123f257600080fd5b506123ff86828701612239565b9497909650939450505050565b600181811c9082168061242057607f821691505b60208210810361244057634e487b7160e01b600052602260045260246000fd5b50919050565b8054600090600181811c908083168061246057607f831692505b6020808410820361248157634e487b7160e01b600052602260045260246000fd5b81801561249557600181146124a6576124d3565b60ff198616895284890196506124d3565b60008881526020902060005b868110156124cb5781548b8201529085019083016124b2565b505084890196505b50505050505092915050565b60006124eb8285612446565b83516124fb818360208801611c48565b01949350505050565b60008251612516818460208701611c48565b9190910192915050565b60006117858284612446565b60008060006060848603121561254157600080fd5b8351925060208401519150604084015161255a81611bbb565b809150509250925092565b6020808252602e908201527f455243313135353a2063616c6c6572206973206e6f7420746f6b656e206f776e60408201526d195c881bdc88185c1c1c9bdd995960921b606082015260800190565b60006001600160401b0360c01b808b60c01b168352808a60c01b166008840152808960c01b166010840152808860c01b166018840152506001600160801b03198660801b16602083015260ff60f81b8560f81b16603083015283151560f81b6031830152825161262a816032850160208701611c48565b919091016032019998505050505050505050565b634e487b7160e01b600052603260045260246000fd5b634e487b7160e01b600052601160045260246000fd5b60006001820161267c5761267c612654565b5060010190565b6000821982111561269657612696612654565b500190565b8183823760009101908152919050565b6040815260006126be6040830185611c74565b82810360208401526126d08185611c74565b95945050505050565b6000602082840312156126eb57600080fd5b5051919050565b81835281816020850137506000828201602090810191909152601f909101601f19169091010190565b88815287602082015260c06040820152600061273a60c0830189611c74565b828103606084015261274d81888a6126f2565b905082810360808401526127628186886126f2565b905082810360a08401526127768185611c74565b9b9a5050505050505050505050565b60208082526025908201527f455243313135353a207472616e7366657220746f20746865207a65726f206164604082015264647265737360d81b606082015260800190565b6020808252602a908201527f455243313135353a20696e73756666696369656e742062616c616e636520666f60408201526939103a3930b739b332b960b11b606082015260800190565b60408152600061282760408301856120ef565b82810360208401526126d081856120ef565b600081600019048311821515161561285357612853612654565b500290565b60008161286757612867612654565b506000190190565b6001600160a01b03868116825285166020820152604081018490526060810183905260a0608082018190526000906128a990830184611c74565b979650505050505050565b6000602082840312156128c657600080fd5b815161178581611bfc565b600060033d1115610f5c5760046000803e5060005160e01c90565b600060443d10156128fa5790565b6040516003193d81016004833e81513d6001600160401b03816024840111818411171561292957505050505090565b82850191508151818111156129415750505050505090565b843d870101602082850101111561295b5750505050505090565b61296a60208286010187611cc9565b509095945050505050565b60208082526028908201527f455243313135353a204552433131353552656365697665722072656a656374656040820152676420746f6b656e7360c01b606082015260800190565b6001600160a01b0386811682528516602082015260a0604082018190526000906129e9908301866120ef565b82810360608401526129fb81866120ef565b90508281036080840152612a0f8185611c74565b9897505050505050505056fea26469706673582212204657306c7196e4aafcb664118e47108fabb84b45d27da13533be4cd9f3cee47964736f6c634300080d0033",
  "devdoc": {
    "kind": "dev",
    "methods": {
      "balanceOf(address,uint256)": {
        "details": "See {IERC1155-balanceOf}. Requirements: - `account` cannot be the zero address."
      },
      "balanceOfBatch(address[],uint256[])": {
        "details": "See {IERC1155-balanceOfBatch}. Requirements: - `accounts` and `ids` must have the same length."
      },
      "isApprovedForAll(address,address)": {
        "details": "See {IERC1155-isApprovedForAll}."
      },
      "owner()": {
        "details": "Returns the address of the current owner."
      },
      "renounceOwnership()": {
        "details": "Leaves the contract without owner. It will not be possible to call `onlyOwner` functions. Can only be called by the current owner. NOTE: Renouncing ownership will leave the contract without an owner, thereby disabling any functionality that is only available to the owner."
      },
      "safeBatchTransferFrom(address,address,uint256[],uint256[],bytes)": {
        "details": "See {IERC1155-safeBatchTransferFrom}."
      },
      "safeTransferFrom(address,address,uint256,uint256,bytes)": {
        "details": "See {IERC1155-safeTransferFrom}."
      },
      "setApprovalForAll(address,bool)": {
        "details": "See {IERC1155-setApprovalForAll}."
      },
      "supportsInterface(bytes4)": {
        "details": "See {IERC165-supportsInterface}."
      },
      "transferOwnership(address)": {
        "details": "Transfers ownership of the contract to a new account (`newOwner`). Can only be called by the current owner."
      }
    },
    "version": 1
  },
  "userdoc": {
    "kind": "user",
    "methods": {},
    "version": 1
  },
  "storageLayout": {
    "storage": [
      {
        "astId": 4326,
        "contract": "src/Utils.sol:Utils",
        "label": "_balances",
        "offset": 0,
        "slot": "0",
        "type": "t_mapping(t_uint256,t_mapping(t_address,t_uint256))"
      },
      {
        "astId": 4332,
        "contract": "src/Utils.sol:Utils",
        "label": "_operatorApprovals",
        "offset": 0,
        "slot": "1",
        "type": "t_mapping(t_address,t_mapping(t_address,t_bool))"
      },
      {
        "astId": 4334,
        "contract": "src/Utils.sol:Utils",
        "label": "_uri",
        "offset": 0,
        "slot": "2",
        "type": "t_string_storage"
      },
      {
        "astId": 3918,
        "contract": "src/Utils.sol:Utils",
        "label": "_owner",
        "offset": 0,
        "slot": "3",
        "type": "t_address"
      },
      {
        "astId": 14184,
        "contract": "src/Utils.sol:Utils",
        "label": "baseUri",
        "offset": 0,
        "slot": "4",
        "type": "t_string_storage"
      },
      {
        "astId": 14186,
        "contract": "src/Utils.sol:Utils",
        "label": "utilCount",
        "offset": 0,
        "slot": "5",
        "type": "t_uint256"
      },
      {
        "astId": 14189,
        "contract": "src/Utils.sol:Utils",
        "label": "gatewayContract",
        "offset": 0,
        "slot": "6",
        "type": "t_contract(IGateway)16821"
      },
      {
        "astId": 14193,
        "contract": "src/Utils.sol:Utils",
        "label": "chains",
        "offset": 0,
        "slot": "7",
        "type": "t_mapping(t_string_memory_ptr,t_string_storage)"
      }
    ],
    "types": {
      "t_address": {
        "encoding": "inplace",
        "label": "address",
        "numberOfBytes": "20"
      },
      "t_bool": {
        "encoding": "inplace",
        "label": "bool",
        "numberOfBytes": "1"
      },
      "t_contract(IGateway)16821": {
        "encoding": "inplace",
        "label": "contract IGateway",
        "numberOfBytes": "20"
      },
      "t_mapping(t_address,t_bool)": {
        "encoding": "mapping",
        "key": "t_address",
        "label": "mapping(address => bool)",
        "numberOfBytes": "32",
        "value": "t_bool"
      },
      "t_mapping(t_address,t_mapping(t_address,t_bool))": {
        "encoding": "mapping",
        "key": "t_address",
        "label": "mapping(address => mapping(address => bool))",
        "numberOfBytes": "32",
        "value": "t_mapping(t_address,t_bool)"
      },
      "t_mapping(t_address,t_uint256)": {
        "encoding": "mapping",
        "key": "t_address",
        "label": "mapping(address => uint256)",
        "numberOfBytes": "32",
        "value": "t_uint256"
      },
      "t_mapping(t_string_memory_ptr,t_string_storage)": {
        "encoding": "mapping",
        "key": "t_string_memory_ptr",
        "label": "mapping(string => string)",
        "numberOfBytes": "32",
        "value": "t_string_storage"
      },
      "t_mapping(t_uint256,t_mapping(t_address,t_uint256))": {
        "encoding": "mapping",
        "key": "t_uint256",
        "label": "mapping(uint256 => mapping(address => uint256))",
        "numberOfBytes": "32",
        "value": "t_mapping(t_address,t_uint256)"
      },
      "t_string_memory_ptr": {
        "encoding": "bytes",
        "label": "string",
        "numberOfBytes": "32"
      },
      "t_string_storage": {
        "encoding": "bytes",
        "label": "string",
        "numberOfBytes": "32"
      },
      "t_uint256": {
        "encoding": "inplace",
        "label": "uint256",
        "numberOfBytes": "32"
      }
    }
  }
}