{
  "abi": [
    {
      "inputs": [],
      "stateMutability": "nonpayable",
      "type": "constructor"
    },
    {
      "inputs": [],
      "name": "InvalidShortString",
      "type": "error"
    },
    {
      "inputs": [
        {
          "internalType": "string",
          "name": "str",
          "type": "string"
        }
      ],
      "name": "StringTooLong",
      "type": "error"
    },
    {
      "anonymous": false,
      "inputs": [],
      "name": "EIP712DomainChanged",
      "type": "event"
    },
    {
      "inputs": [],
      "name": "eip712Domain",
      "outputs": [
        {
          "internalType": "bytes1",
          "name": "fields",
          "type": "bytes1"
        },
        {
          "internalType": "string",
          "name": "name",
          "type": "string"
        },
        {
          "internalType": "string",
          "name": "version",
          "type": "string"
        },
        {
          "internalType": "uint256",
          "name": "chainId",
          "type": "uint256"
        },
        {
          "internalType": "address",
          "name": "verifyingContract",
          "type": "address"
        },
        {
          "internalType": "bytes32",
          "name": "salt",
          "type": "bytes32"
        },
        {
          "internalType": "uint256[]",
          "name": "extensions",
          "type": "uint256[]"
        }
      ],
      "stateMutability": "view",
      "type": "function"
    },
    {
      "inputs": [
        {
          "components": [
            {
              "internalType": "address",
              "name": "from",
              "type": "address"
            },
            {
              "internalType": "address",
              "name": "to",
              "type": "address"
            },
            {
              "internalType": "uint256",
              "name": "value",
              "type": "uint256"
            },
            {
              "internalType": "uint256",
              "name": "gas",
              "type": "uint256"
            },
            {
              "internalType": "uint256",
              "name": "nonce",
              "type": "uint256"
            },
            {
              "internalType": "bytes",
              "name": "data",
              "type": "bytes"
            }
          ],
          "internalType": "struct Forwarder.ForwardRequest",
          "name": "req",
          "type": "tuple"
        },
        {
          "internalType": "bytes",
          "name": "signature",
          "type": "bytes"
        }
      ],
      "name": "execute",
      "outputs": [
        {
          "internalType": "bool",
          "name": "",
          "type": "bool"
        },
        {
          "internalType": "bytes",
          "name": "",
          "type": "bytes"
        }
      ],
      "stateMutability": "payable",
      "type": "function"
    },
    {
      "inputs": [
        {
          "internalType": "address",
          "name": "from",
          "type": "address"
        }
      ],
      "name": "getNonce",
      "outputs": [
        {
          "internalType": "uint256",
          "name": "",
          "type": "uint256"
        }
      ],
      "stateMutability": "view",
      "type": "function"
    },
    {
      "inputs": [
        {
          "components": [
            {
              "internalType": "address",
              "name": "from",
              "type": "address"
            },
            {
              "internalType": "address",
              "name": "to",
              "type": "address"
            },
            {
              "internalType": "uint256",
              "name": "value",
              "type": "uint256"
            },
            {
              "internalType": "uint256",
              "name": "gas",
              "type": "uint256"
            },
            {
              "internalType": "uint256",
              "name": "nonce",
              "type": "uint256"
            },
            {
              "internalType": "bytes",
              "name": "data",
              "type": "bytes"
            }
          ],
          "internalType": "struct Forwarder.ForwardRequest",
          "name": "req",
          "type": "tuple"
        },
        {
          "internalType": "bytes",
          "name": "signature",
          "type": "bytes"
        }
      ],
      "name": "verify",
      "outputs": [
        {
          "internalType": "bool",
          "name": "",
          "type": "bool"
        }
      ],
      "stateMutability": "view",
      "type": "function"
    }
  ],
  "bytecode": {
    "object": "0x6101606040523480156200001257600080fd5b50604080518082018252600f81526e23a9a73b19102337b93bb0b93232b960891b60208083019190915282518084019093526005835264302e302e3160d81b90830152906200006382600062000111565b610120526200007481600162000111565b61014052815160208084019190912060e052815190820120610100524660a0526200010260e05161010051604080517f8b73c3c69bb8fe3d512ecc4cf759cc79239f7b179b0ffacaa9a75d522b39400f60208201529081019290925260608201524660808201523060a082015260009060c00160405160208183030381529060405280519060200120905090565b60805250503060c0526200037c565b6000602083511015620001315762000129836200014a565b905062000144565b816200013e84826200023b565b5060ff90505b92915050565b600080829050601f8151111562000181578260405163305a27a960e01b815260040162000178919062000307565b60405180910390fd5b80516200018e8262000357565b179392505050565b634e487b7160e01b600052604160045260246000fd5b600181811c90821680620001c157607f821691505b602082108103620001e257634e487b7160e01b600052602260045260246000fd5b50919050565b601f8211156200023657600081815260208120601f850160051c81016020861015620002115750805b601f850160051c820191505b8181101562000232578281556001016200021d565b5050505b505050565b81516001600160401b0381111562000257576200025762000196565b6200026f81620002688454620001ac565b84620001e8565b602080601f831160018114620002a757600084156200028e5750858301515b600019600386901b1c1916600185901b17855562000232565b600085815260208120601f198616915b82811015620002d857888601518255948401946001909101908401620002b7565b5085821015620002f75787850151600019600388901b60f8161c191681555b5050505050600190811b01905550565b600060208083528351808285015260005b81811015620003365785810183015185820160400152820162000318565b506000604082860101526040601f19601f8301168501019250505092915050565b80516020808301519190811015620001e25760001960209190910360031b1b16919050565b60805160a05160c05160e051610100516101205161014051610e47620003d760003960006103670152600061033d0152600061074d0152600061072501526000610680015260006106aa015260006106d40152610e476000f3fe60806040526004361061003f5760003560e01c80632d0335ab1461004457806347153f821461008d57806384b0196e146100ae578063bf5d3bdb146100d6575b600080fd5b34801561005057600080fd5b5061007a61005f366004610a21565b6001600160a01b031660009081526002602052604090205490565b6040519081526020015b60405180910390f35b6100a061009b366004610a51565b610106565b604051610084929190610b40565b3480156100ba57600080fd5b506100c361032f565b6040516100849796959493929190610b63565b3480156100e257600080fd5b506100f66100f1366004610a51565b6103b7565b6040519015158152602001610084565b600060606101158585856103b7565b6101815760405162461bcd60e51b815260206004820152603260248201527f4d696e696d616c466f727761726465723a207369676e617475726520646f6573604482015271081b9bdd081b585d18da081c995c5d595cdd60721b60648201526084015b60405180910390fd5b61019060808601356001610bf9565b600260006101a16020890189610a21565b6001600160a01b03166001600160a01b03168152602001908152602001600020819055506000808660200160208101906101db9190610a21565b6001600160a01b0316606088013560408901356101fb60a08b018b610c1a565b61020860208d018d610a21565b60405160200161021a93929190610c61565b60408051601f198184030181529082905261023491610c87565b600060405180830381858888f193505050503d8060008114610272576040519150601f19603f3d011682016040523d82523d6000602084013e610277565b606091505b509150915081610306576044815110156102d35760405162461bcd60e51b815260206004820152601d60248201527f5472616e73616374696f6e2072657665727465642073696c656e746c790000006044820152606401610178565b600481019050808060200190518101906102ed9190610cb9565b60405162461bcd60e51b81526004016101789190610d66565b610315603f6060890135610d79565b5a1161032357610323610d9b565b90969095509350505050565b6000606080828080836103627f000000000000000000000000000000000000000000000000000000000000000083610536565b61038d7f00000000000000000000000000000000000000000000000000000000000000006001610536565b60408051600080825260208201909252600f60f81b9b939a50919850469750309650945092509050565b6000806104ca84848080601f0160208091040260200160405190810160405280939291908181526020018383808284376000920191909152506104c492507fdd8f4b70b0f4393e889bd39128a30628a78b61816a9eb8199759e7a349657e489150610427905060208a018a610a21565b61043760408b0160208c01610a21565b60408b013560608c013560808d013561045360a08f018f610c1a565b604051610461929190610db1565b6040805191829003822060208301989098526001600160a01b0396871690820152949093166060850152608084019190915260a083015260c082015260e081019190915261010001604051602081830303815290604052805190602001206105e3565b90610610565b90506080850135600260006104e26020890189610a21565b6001600160a01b03166001600160a01b031681526020019081526020016000205414801561052d57506105186020860186610a21565b6001600160a01b0316816001600160a01b0316145b95945050505050565b606060ff83146105505761054983610634565b90506105dd565b81805461055c90610dc1565b80601f016020809104026020016040519081016040528092919081815260200182805461058890610dc1565b80156105d55780601f106105aa576101008083540402835291602001916105d5565b820191906000526020600020905b8154815290600101906020018083116105b857829003601f168201915b505050505090505b92915050565b60006105dd6105f0610673565b8360405161190160f01b8152600281019290925260228201526042902090565b600080600061061f85856107a3565b9150915061062c816107e8565b509392505050565b6060600061064183610935565b604080516020808252818301909252919250600091906020820181803683375050509182525060208101929092525090565b6000306001600160a01b037f0000000000000000000000000000000000000000000000000000000000000000161480156106cc57507f000000000000000000000000000000000000000000000000000000000000000046145b156106f657507f000000000000000000000000000000000000000000000000000000000000000090565b61079e604080517f8b73c3c69bb8fe3d512ecc4cf759cc79239f7b179b0ffacaa9a75d522b39400f60208201527f0000000000000000000000000000000000000000000000000000000000000000918101919091527f000000000000000000000000000000000000000000000000000000000000000060608201524660808201523060a082015260009060c00160405160208183030381529060405280519060200120905090565b905090565b60008082516041036107d95760208301516040840151606085015160001a6107cd8782858561095d565b945094505050506107e1565b506000905060025b9250929050565b60008160048111156107fc576107fc610dfb565b036108045750565b600181600481111561081857610818610dfb565b036108655760405162461bcd60e51b815260206004820152601860248201527f45434453413a20696e76616c6964207369676e617475726500000000000000006044820152606401610178565b600281600481111561087957610879610dfb565b036108c65760405162461bcd60e51b815260206004820152601f60248201527f45434453413a20696e76616c6964207369676e6174757265206c656e677468006044820152606401610178565b60038160048111156108da576108da610dfb565b036109325760405162461bcd60e51b815260206004820152602260248201527f45434453413a20696e76616c6964207369676e6174757265202773272076616c604482015261756560f01b6064820152608401610178565b50565b600060ff8216601f8111156105dd57604051632cd44ac360e21b815260040160405180910390fd5b6000807f7fffffffffffffffffffffffffffffff5d576e7357a4501ddfe92f46681b20a08311156109945750600090506003610a18565b6040805160008082526020820180845289905260ff881692820192909252606081018690526080810185905260019060a0016020604051602081039080840390855afa1580156109e8573d6000803e3d6000fd5b5050604051601f1901519150506001600160a01b038116610a1157600060019250925050610a18565b9150600090505b94509492505050565b600060208284031215610a3357600080fd5b81356001600160a01b0381168114610a4a57600080fd5b9392505050565b600080600060408486031215610a6657600080fd5b833567ffffffffffffffff80821115610a7e57600080fd5b9085019060c08288031215610a9257600080fd5b90935060208501359080821115610aa857600080fd5b818601915086601f830112610abc57600080fd5b813581811115610acb57600080fd5b876020828501011115610add57600080fd5b6020830194508093505050509250925092565b60005b83811015610b0b578181015183820152602001610af3565b50506000910152565b60008151808452610b2c816020860160208601610af0565b601f01601f19169290920160200192915050565b8215158152604060208201526000610b5b6040830184610b14565b949350505050565b60ff60f81b881681526000602060e081840152610b8360e084018a610b14565b8381036040850152610b95818a610b14565b606085018990526001600160a01b038816608086015260a0850187905284810360c0860152855180825283870192509083019060005b81811015610be757835183529284019291840191600101610bcb565b50909c9b505050505050505050505050565b808201808211156105dd57634e487b7160e01b600052601160045260246000fd5b6000808335601e19843603018112610c3157600080fd5b83018035915067ffffffffffffffff821115610c4c57600080fd5b6020019150368190038213156107e157600080fd5b8284823760609190911b6bffffffffffffffffffffffff19169101908152601401919050565b60008251610c99818460208701610af0565b9190910192915050565b634e487b7160e01b600052604160045260246000fd5b600060208284031215610ccb57600080fd5b815167ffffffffffffffff80821115610ce357600080fd5b818401915084601f830112610cf757600080fd5b815181811115610d0957610d09610ca3565b604051601f8201601f19908116603f01168101908382118183101715610d3157610d31610ca3565b81604052828152876020848701011115610d4a57600080fd5b610d5b836020830160208801610af0565b979650505050505050565b602081526000610a4a6020830184610b14565b600082610d9657634e487b7160e01b600052601260045260246000fd5b500490565b634e487b7160e01b600052600160045260246000fd5b8183823760009101908152919050565b600181811c90821680610dd557607f821691505b602082108103610df557634e487b7160e01b600052602260045260246000fd5b50919050565b634e487b7160e01b600052602160045260246000fdfea26469706673582212202763d4adcb29a45977e139be1e61313aec35759294cc5a48ed26ad7fff569f4664736f6c63430008130033",
    "linkReferences": {}
  },
  "methodIdentifiers": {
    "eip712Domain()": "84b0196e",
    "execute((address,address,uint256,uint256,uint256,bytes),bytes)": "47153f82",
    "getNonce(address)": "2d0335ab",
    "verify((address,address,uint256,uint256,uint256,bytes),bytes)": "bf5d3bdb"
  },
  "id": 63
}