{
  "abi": [
    {
      "inputs": [
        {
          "internalType": "string",
          "name": "_baseUri",
          "type": "string"
        },
        {
          "internalType": "address",
          "name": "trustedForwarder",
          "type": "address"
        },
        {
          "internalType": "address payable",
          "name": "gatewayAddress",
          "type": "address"
        }
      ],
      "stateMutability": "nonpayable",
      "type": "constructor"
    },
    {
      "inputs": [],
      "name": "CrossChainNotSupported",
      "type": "error"
    },
    {
      "inputs": [],
      "name": "InsufficientBalance",
      "type": "error"
    },
    {
      "inputs": [],
      "name": "InvalidChain",
      "type": "error"
    },
    {
      "anonymous": false,
      "inputs": [
        {
          "indexed": true,
          "internalType": "address",
          "name": "account",
          "type": "address"
        },
        {
          "indexed": true,
          "internalType": "address",
          "name": "operator",
          "type": "address"
        },
        {
          "indexed": false,
          "internalType": "bool",
          "name": "approved",
          "type": "bool"
        }
      ],
      "name": "ApprovalForAll",
      "type": "event"
    },
    {
      "anonymous": false,
      "inputs": [
        {
          "indexed": true,
          "internalType": "address",
          "name": "previousOwner",
          "type": "address"
        },
        {
          "indexed": true,
          "internalType": "address",
          "name": "newOwner",
          "type": "address"
        }
      ],
      "name": "OwnershipTransferred",
      "type": "event"
    },
    {
      "anonymous": false,
      "inputs": [
        {
          "indexed": true,
          "internalType": "address",
          "name": "operator",
          "type": "address"
        },
        {
          "indexed": true,
          "internalType": "address",
          "name": "from",
          "type": "address"
        },
        {
          "indexed": true,
          "internalType": "address",
          "name": "to",
          "type": "address"
        },
        {
          "indexed": false,
          "internalType": "uint256[]",
          "name": "ids",
          "type": "uint256[]"
        },
        {
          "indexed": false,
          "internalType": "uint256[]",
          "name": "values",
          "type": "uint256[]"
        }
      ],
      "name": "TransferBatch",
      "type": "event"
    },
    {
      "anonymous": false,
      "inputs": [
        {
          "indexed": true,
          "internalType": "address",
          "name": "operator",
          "type": "address"
        },
        {
          "indexed": true,
          "internalType": "address",
          "name": "from",
          "type": "address"
        },
        {
          "indexed": true,
          "internalType": "address",
          "name": "to",
          "type": "address"
        },
        {
          "indexed": false,
          "internalType": "uint256",
          "name": "id",
          "type": "uint256"
        },
        {
          "indexed": false,
          "internalType": "uint256",
          "name": "value",
          "type": "uint256"
        }
      ],
      "name": "TransferSingle",
      "type": "event"
    },
    {
      "anonymous": false,
      "inputs": [
        {
          "indexed": false,
          "internalType": "string",
          "name": "value",
          "type": "string"
        },
        {
          "indexed": true,
          "internalType": "uint256",
          "name": "id",
          "type": "uint256"
        }
      ],
      "name": "URI",
      "type": "event"
    },
    {
      "inputs": [
        {
          "internalType": "address",
          "name": "account",
          "type": "address"
        },
        {
          "internalType": "uint256",
          "name": "id",
          "type": "uint256"
        }
      ],
      "name": "balanceOf",
      "outputs": [
        {
          "internalType": "uint256",
          "name": "",
          "type": "uint256"
        }
      ],
      "stateMutability": "view",
      "type": "function"
    },
    {
      "inputs": [
        {
          "internalType": "address[]",
          "name": "accounts",
          "type": "address[]"
        },
        {
          "internalType": "uint256[]",
          "name": "ids",
          "type": "uint256[]"
        }
      ],
      "name": "balanceOfBatch",
      "outputs": [
        {
          "internalType": "uint256[]",
          "name": "",
          "type": "uint256[]"
        }
      ],
      "stateMutability": "view",
      "type": "function"
    },
    {
      "inputs": [],
      "name": "baseUri",
      "outputs": [
        {
          "internalType": "string",
          "name": "",
          "type": "string"
        }
      ],
      "stateMutability": "view",
      "type": "function"
    },
    {
      "inputs": [
        {
          "internalType": "string",
          "name": "",
          "type": "string"
        }
      ],
      "name": "chains",
      "outputs": [
        {
          "internalType": "string",
          "name": "",
          "type": "string"
        }
      ],
      "stateMutability": "view",
      "type": "function"
    },
    {
      "inputs": [
        {
          "internalType": "string",
          "name": "destinationChain",
          "type": "string"
        },
        {
          "internalType": "uint256",
          "name": "tokenId",
          "type": "uint256"
        },
        {
          "internalType": "uint256",
          "name": "amount",
          "type": "uint256"
        },
        {
          "internalType": "bytes",
          "name": "requestMetadata",
          "type": "bytes"
        }
      ],
      "name": "crossChainTransfer",
      "outputs": [],
      "stateMutability": "payable",
      "type": "function"
    },
    {
      "inputs": [],
      "name": "gatewayContract",
      "outputs": [
        {
          "internalType": "contract IGateway",
          "name": "",
          "type": "address"
        }
      ],
      "stateMutability": "view",
      "type": "function"
    },
    {
      "inputs": [
        {
          "internalType": "uint64",
          "name": "destGasLimit",
          "type": "uint64"
        },
        {
          "internalType": "uint64",
          "name": "destGasPrice",
          "type": "uint64"
        },
        {
          "internalType": "uint64",
          "name": "ackGasLimit",
          "type": "uint64"
        },
        {
          "internalType": "uint64",
          "name": "ackGasPrice",
          "type": "uint64"
        },
        {
          "internalType": "uint128",
          "name": "relayerFees",
          "type": "uint128"
        },
        {
          "internalType": "uint8",
          "name": "ackType",
          "type": "uint8"
        },
        {
          "internalType": "bool",
          "name": "isReadCall",
          "type": "bool"
        },
        {
          "internalType": "bytes",
          "name": "asmAddress",
          "type": "bytes"
        }
      ],
      "name": "getRequestMetadata",
      "outputs": [
        {
          "internalType": "bytes",
          "name": "",
          "type": "bytes"
        }
      ],
      "stateMutability": "pure",
      "type": "function"
    },
    {
      "inputs": [
        {
          "internalType": "uint256",
          "name": "requestIdentifier",
          "type": "uint256"
        },
        {
          "internalType": "bool",
          "name": "execFlag",
          "type": "bool"
        },
        {
          "internalType": "bytes",
          "name": "execData",
          "type": "bytes"
        }
      ],
      "name": "iAck",
      "outputs": [],
      "stateMutability": "nonpayable",
      "type": "function"
    },
    {
      "inputs": [
        {
          "internalType": "string",
          "name": "requestSender",
          "type": "string"
        },
        {
          "internalType": "bytes",
          "name": "packet",
          "type": "bytes"
        },
        {
          "internalType": "string",
          "name": "srcChainId",
          "type": "string"
        }
      ],
      "name": "iReceive",
      "outputs": [
        {
          "internalType": "bytes",
          "name": "",
          "type": "bytes"
        }
      ],
      "stateMutability": "nonpayable",
      "type": "function"
    },
    {
      "inputs": [
        {
          "internalType": "address",
          "name": "account",
          "type": "address"
        },
        {
          "internalType": "address",
          "name": "operator",
          "type": "address"
        }
      ],
      "name": "isApprovedForAll",
      "outputs": [
        {
          "internalType": "bool",
          "name": "",
          "type": "bool"
        }
      ],
      "stateMutability": "view",
      "type": "function"
    },
    {
      "inputs": [
        {
          "internalType": "address",
          "name": "forwarder",
          "type": "address"
        }
      ],
      "name": "isTrustedForwarder",
      "outputs": [
        {
          "internalType": "bool",
          "name": "",
          "type": "bool"
        }
      ],
      "stateMutability": "view",
      "type": "function"
    },
    {
      "inputs": [
        {
          "internalType": "uint256",
          "name": "amount",
          "type": "uint256"
        }
      ],
      "name": "mint",
      "outputs": [],
      "stateMutability": "nonpayable",
      "type": "function"
    },
    {
      "inputs": [
        {
          "internalType": "uint256",
          "name": "id",
          "type": "uint256"
        },
        {
          "internalType": "uint256",
          "name": "amount",
          "type": "uint256"
        }
      ],
      "name": "mintMore",
      "outputs": [],
      "stateMutability": "nonpayable",
      "type": "function"
    },
    {
      "inputs": [],
      "name": "owner",
      "outputs": [
        {
          "internalType": "address",
          "name": "",
          "type": "address"
        }
      ],
      "stateMutability": "view",
      "type": "function"
    },
    {
      "inputs": [],
      "name": "renounceOwnership",
      "outputs": [],
      "stateMutability": "nonpayable",
      "type": "function"
    },
    {
      "inputs": [
        {
          "internalType": "address",
          "name": "from",
          "type": "address"
        },
        {
          "internalType": "address",
          "name": "to",
          "type": "address"
        },
        {
          "internalType": "uint256[]",
          "name": "ids",
          "type": "uint256[]"
        },
        {
          "internalType": "uint256[]",
          "name": "amounts",
          "type": "uint256[]"
        },
        {
          "internalType": "bytes",
          "name": "data",
          "type": "bytes"
        }
      ],
      "name": "safeBatchTransferFrom",
      "outputs": [],
      "stateMutability": "nonpayable",
      "type": "function"
    },
    {
      "inputs": [
        {
          "internalType": "address",
          "name": "from",
          "type": "address"
        },
        {
          "internalType": "address",
          "name": "to",
          "type": "address"
        },
        {
          "internalType": "uint256",
          "name": "id",
          "type": "uint256"
        },
        {
          "internalType": "uint256",
          "name": "amount",
          "type": "uint256"
        },
        {
          "internalType": "bytes",
          "name": "data",
          "type": "bytes"
        }
      ],
      "name": "safeTransferFrom",
      "outputs": [],
      "stateMutability": "nonpayable",
      "type": "function"
    },
    {
      "inputs": [
        {
          "internalType": "address",
          "name": "operator",
          "type": "address"
        },
        {
          "internalType": "bool",
          "name": "approved",
          "type": "bool"
        }
      ],
      "name": "setApprovalForAll",
      "outputs": [],
      "stateMutability": "nonpayable",
      "type": "function"
    },
    {
      "inputs": [
        {
          "internalType": "string",
          "name": "chain",
          "type": "string"
        },
        {
          "internalType": "string",
          "name": "addr",
          "type": "string"
        }
      ],
      "name": "setChain",
      "outputs": [],
      "stateMutability": "nonpayable",
      "type": "function"
    },
    {
      "inputs": [
        {
          "internalType": "string",
          "name": "FeePayer",
          "type": "string"
        }
      ],
      "name": "setDappMetadata",
      "outputs": [],
      "stateMutability": "nonpayable",
      "type": "function"
    },
    {
      "inputs": [
        {
          "internalType": "address",
          "name": "gateway",
          "type": "address"
        }
      ],
      "name": "setGateway",
      "outputs": [],
      "stateMutability": "nonpayable",
      "type": "function"
    },
    {
      "inputs": [
        {
          "internalType": "bytes4",
          "name": "interfaceId",
          "type": "bytes4"
        }
      ],
      "name": "supportsInterface",
      "outputs": [
        {
          "internalType": "bool",
          "name": "",
          "type": "bool"
        }
      ],
      "stateMutability": "view",
      "type": "function"
    },
    {
      "inputs": [
        {
          "internalType": "address",
          "name": "newOwner",
          "type": "address"
        }
      ],
      "name": "transferOwnership",
      "outputs": [],
      "stateMutability": "nonpayable",
      "type": "function"
    },
    {
      "inputs": [
        {
          "internalType": "uint256",
          "name": "id",
          "type": "uint256"
        }
      ],
      "name": "uri",
      "outputs": [
        {
          "internalType": "string",
          "name": "",
          "type": "string"
        }
      ],
      "stateMutability": "view",
      "type": "function"
    },
    {
      "inputs": [],
      "name": "utilCount",
      "outputs": [
        {
          "internalType": "uint256",
          "name": "",
          "type": "uint256"
        }
      ],
      "stateMutability": "view",
      "type": "function"
    }
  ],
  "bytecode": {
    "object": "0x60a06040523480156200001157600080fd5b5060405162002e6238038062002e6283398101604081905262000034916200016a565b6001600160a01b038216608052826200004d816200009a565b50620000626200005c620000ac565b620000bd565b6004620000708482620002f3565b50600680546001600160a01b0319166001600160a01b039290921691909117905550620003bf9050565b6002620000a88282620002f3565b5050565b6000620000b86200010f565b905090565b600380546001600160a01b038381166001600160a01b0319831681179093556040519116919082907f8be0079c531659141344cd1fd0a4f28419497f9722a3daafe3b4186f6b6457e090600090a35050565b6080516000906001600160a01b0316330362000132575060131936013560601c90565b503390565b634e487b7160e01b600052604160045260246000fd5b80516001600160a01b03811681146200016557600080fd5b919050565b6000806000606084860312156200018057600080fd5b83516001600160401b03808211156200019857600080fd5b818601915086601f830112620001ad57600080fd5b815181811115620001c257620001c262000137565b604051601f8201601f19908116603f01168101908382118183101715620001ed57620001ed62000137565b816040528281526020935089848487010111156200020a57600080fd5b600091505b828210156200022e57848201840151818301850152908301906200020f565b6000848483010152809750505050620002498187016200014d565b935050506200025b604085016200014d565b90509250925092565b600181811c908216806200027957607f821691505b6020821081036200029a57634e487b7160e01b600052602260045260246000fd5b50919050565b601f821115620002ee57600081815260208120601f850160051c81016020861015620002c95750805b601f850160051c820191505b81811015620002ea57828155600101620002d5565b5050505b505050565b81516001600160401b038111156200030f576200030f62000137565b620003278162000320845462000264565b84620002a0565b602080601f8311600181146200035f5760008415620003465750858301515b600019600386901b1c1916600185901b178555620002ea565b600085815260208120601f198616915b8281101562000390578886015182559484019460019091019084016200036f565b5085821015620003af5787850151600019600388901b60f8161c191681555b5050505050600190811b01905550565b608051612a80620003e2600039600081816102c60152611a220152612a806000f3fe6080604052600436106101655760003560e01c806390646b4a116100d1578063dd9b0a271161008a578063ef15cbda11610064578063ef15cbda14610484578063f242432a146104a4578063f2fde38b146104c4578063f567ad9d146104e457600080fd5b8063dd9b0a2714610408578063e985e9c51461041b578063eb0cde1d1461046457600080fd5b806390646b4a1461035d5780639abc83201461037d578063a0712d6814610392578063a22cb465146103b2578063a4e21288146103d2578063baacbe9b146103f257600080fd5b80634e1273f4116101235780634e1273f41461025c5780634f7c055e14610289578063572b6c05146102a9578063715018a6146102f65780638a39f0f71461030b5780638da5cb5b1461032b57600080fd5b8062fdd58e1461016a57806301ffc9a71461019d5780630e89341c146101cd5780631aa6485a146101fa5780632eb2c2d61461021a57806337bf9c411461023c575b600080fd5b34801561017657600080fd5b5061018a610185366004611b35565b610504565b6040519081526020015b60405180910390f35b3480156101a957600080fd5b506101bd6101b8366004611b77565b61059d565b6040519015158152602001610194565b3480156101d957600080fd5b506101ed6101e8366004611b94565b6105ed565b6040516101949190611bfd565b34801561020657600080fd5b506101ed610215366004611cc5565b610621565b34801561022657600080fd5b5061023a610235366004611de0565b610773565b005b34801561024857600080fd5b506101ed610257366004611eb9565b6107d1565b34801561026857600080fd5b5061027c610277366004611f80565b610812565b6040516101949190612087565b34801561029557600080fd5b5061023a6102a436600461209a565b61093b565b3480156102b557600080fd5b506101bd6102c43660046120bc565b7f00000000000000000000000000000000000000000000000000000000000000006001600160a01b0390811691161490565b34801561030257600080fd5b5061023a610969565b34801561031757600080fd5b506101ed6103263660046120d9565b61097d565b34801561033757600080fd5b506003546001600160a01b03165b6040516001600160a01b039091168152602001610194565b34801561036957600080fd5b5061023a6103783660046120bc565b610a22565b34801561038957600080fd5b506101ed610a4c565b34801561039e57600080fd5b5061023a6103ad366004611b94565b610a59565b3480156103be57600080fd5b5061023a6103cd366004612115565b610aa1565b3480156103de57600080fd5b5061023a6103ed36600461214a565b505050565b3480156103fe57600080fd5b5061018a60055481565b61023a6104163660046121de565b610ab3565b34801561042757600080fd5b506101bd610436366004612260565b6001600160a01b03918216600090815260016020908152604080832093909416825291909152205460ff1690565b34801561047057600080fd5b50600654610345906001600160a01b031681565b34801561049057600080fd5b5061023a61049f3660046120d9565b610d92565b3480156104b057600080fd5b5061023a6104bf366004612299565b610e0d565b3480156104d057600080fd5b5061023a6104df3660046120bc565b610e64565b3480156104f057600080fd5b5061023a6104ff366004612301565b610eda565b60006001600160a01b0383166105745760405162461bcd60e51b815260206004820152602a60248201527f455243313135353a2061646472657373207a65726f206973206e6f742061207660448201526930b634b21037bbb732b960b11b60648201526084015b60405180910390fd5b506000818152602081815260408083206001600160a01b03861684529091529020545b92915050565b60006001600160e01b03198216636cdb3d1360e11b14806105ce57506001600160e01b031982166303a24d0760e21b145b8061059757506301ffc9a760e01b6001600160e01b0319831614610597565b606060046105fa83610f15565b60405160200161060b929190612416565b6040516020818303038152906040529050919050565b6006546060906001600160a01b031661064d5760405163358ce81d60e21b815260040160405180910390fd5b6006546001600160a01b031633146106965760405162461bcd60e51b815260206004820152600c60248201526b6f6e6c79206761746577617960a01b604482015260640161056b565b836040516020016106a7919061243b565b604051602081830303815290604052805190602001206007836040516106cd919061243b565b90815260200160405180910390206040516020016106eb9190612457565b604051602081830303815290604052805190602001201461071f5760405163057f3fa760e51b815260040160405180910390fd5b6000806000858060200190518101906107389190612463565b92509250925061075981848460405180602001604052806000815250610f59565b505060408051602081019091526000815295945050505050565b61077b611078565b6001600160a01b0316856001600160a01b031614806107a157506107a185610436611078565b6107bd5760405162461bcd60e51b815260040161056b9061249c565b6107ca8585858585611087565b5050505050565b6060600089898989898989896040516020016107f49897969594939291906124ea565b60408051808303601f190181529190529a9950505050505050505050565b606081518351146108775760405162461bcd60e51b815260206004820152602960248201527f455243313135353a206163636f756e747320616e6420696473206c656e677468604482015268040dad2e6dac2e8c6d60bb1b606482015260840161056b565b600083516001600160401b0381111561089257610892611c10565b6040519080825280602002602001820160405280156108bb578160200160208202803683370190505b50905060005b8451811015610933576109068582815181106108df576108df612575565b60200260200101518583815181106108f9576108f9612575565b6020026020010151610504565b82828151811061091857610918612575565b602090810291909101015261092c816125a1565b90506108c1565b509392505050565b61094361126f565b61096561094e611078565b838360405180602001604052806000815250610f59565b5050565b61097161126f565b61097b60006112e8565b565b8051602081830181018051600782529282019190930120915280546109a190612369565b80601f01602080910402602001604051908101604052809291908181526020018280546109cd90612369565b8015610a1a5780601f106109ef57610100808354040283529160200191610a1a565b820191906000526020600020905b8154815290600101906020018083116109fd57829003601f168201915b505050505081565b610a2a61126f565b600680546001600160a01b0319166001600160a01b0392909216919091179055565b600480546109a190612369565b610a6161126f565b600160056000828254610a7491906125ba565b90915550610a9e9050610a85611078565b6005548360405180602001604052806000815250610f59565b50565b610965610aac611078565b838361133a565b6006546001600160a01b0316610adc5760405163358ce81d60e21b815260040160405180910390fd5b600060078787604051610af09291906125cd565b90815260200160405180910390208054610b0990612369565b80601f0160208091040260200160405190810160405280929190818152602001828054610b3590612369565b8015610b825780601f10610b5757610100808354040283529160200191610b82565b820191906000526020600020905b815481529060010190602001808311610b6557829003601f168201915b505050505090508051600003610bab5760405163057f3fa760e51b815260040160405180910390fd5b610bbc610bb6611078565b86610504565b841115610bdc57604051631e9acf1760e31b815260040160405180910390fd5b610bee610be7611078565b868661141a565b60008585610bfa611078565b6040805160208101949094528301919091526001600160a01b03166060820152608001604051602081830303815290604052905060008282604051602001610c439291906125dd565b60408051601f198184030181529190526006549091506001600160a01b031663ef15cbda610c82610c72611078565b6001600160a01b031660146115a1565b6040518263ffffffff1660e01b8152600401610c9e9190611bfd565b6020604051808303816000875af1158015610cbd573d6000803e3d6000fd5b505050506040513d601f19601f82011682018060405250810190610ce1919061260b565b50600660009054906101000a90046001600160a01b03166001600160a01b0316637bed470a3460016000604051806020016040528060008152508e8e8c8c8a6040518a63ffffffff1660e01b8152600401610d4398979695949392919061264d565b60206040518083038185885af1158015610d61573d6000803e3d6000fd5b50505050506040513d601f19601f82011682018060405250810190610d86919061260b565b50505050505050505050565b610d9a61126f565b60065460405163778ae5ed60e11b81526001600160a01b039091169063ef15cbda90610dca908490600401611bfd565b6020604051808303816000875af1158015610de9573d6000803e3d6000fd5b505050506040513d601f19601f82011682018060405250810190610965919061260b565b610e15611078565b6001600160a01b0316856001600160a01b03161480610e3b5750610e3b85610436611078565b610e575760405162461bcd60e51b815260040161056b9061249c565b6107ca8585858585611743565b610e6c61126f565b6001600160a01b038116610ed15760405162461bcd60e51b815260206004820152602660248201527f4f776e61626c653a206e6577206f776e657220697320746865207a65726f206160448201526564647265737360d01b606482015260840161056b565b610a9e816112e8565b610ee261126f565b8181600785604051610ef4919061243b565b90815260200160405180910390209182610f0f9291906126fd565b50505050565b606060a06040510180604052602081039150506000815280825b600183039250600a81066030018353600a900480610f2f5750819003601f19909101908152919050565b6001600160a01b038416610fb95760405162461bcd60e51b815260206004820152602160248201527f455243313135353a206d696e7420746f20746865207a65726f206164647265736044820152607360f81b606482015260840161056b565b6000610fc3611078565b90506000610fd085611878565b90506000610fdd85611878565b90506000868152602081815260408083206001600160a01b038b1684529091528120805487929061100f9084906125ba565b909155505060408051878152602081018790526001600160a01b03808a1692600092918716917fc3d58168c5ae7397731d063d5bbf3d657854427343f4c083240f7aacaa2d0f62910160405180910390a461106f836000898989896118c3565b50505050505050565b6000611082611a1e565b905090565b81518351146110e95760405162461bcd60e51b815260206004820152602860248201527f455243313135353a2069647320616e6420616d6f756e7473206c656e677468206044820152670dad2e6dac2e8c6d60c31b606482015260840161056b565b6001600160a01b03841661110f5760405162461bcd60e51b815260040161056b906127bc565b6000611119611078565b905060005b845181101561120157600085828151811061113b5761113b612575565b60200260200101519050600085838151811061115957611159612575565b602090810291909101810151600084815280835260408082206001600160a01b038e1683529093529190912054909150818110156111a95760405162461bcd60e51b815260040161056b90612801565b6000838152602081815260408083206001600160a01b038e8116855292528083208585039055908b168252812080548492906111e69084906125ba565b92505081905550505050806111fa906125a1565b905061111e565b50846001600160a01b0316866001600160a01b0316826001600160a01b03167f4a39dc06d4c0dbc64b70af90fd698a233a518aa5d07e595d983b8c0526c8f7fb878760405161125192919061284b565b60405180910390a4611267818787878787611a65565b505050505050565b611277611078565b6001600160a01b03166112926003546001600160a01b031690565b6001600160a01b03161461097b5760405162461bcd60e51b815260206004820181905260248201527f4f776e61626c653a2063616c6c6572206973206e6f7420746865206f776e6572604482015260640161056b565b600380546001600160a01b038381166001600160a01b0319831681179093556040519116919082907f8be0079c531659141344cd1fd0a4f28419497f9722a3daafe3b4186f6b6457e090600090a35050565b816001600160a01b0316836001600160a01b0316036113ad5760405162461bcd60e51b815260206004820152602960248201527f455243313135353a2073657474696e6720617070726f76616c20737461747573604482015268103337b91039b2b63360b91b606482015260840161056b565b6001600160a01b03838116600081815260016020908152604080832094871680845294825291829020805460ff191686151590811790915591519182527f17307eab39ab6107e8899845ad3d59bd9653f200f220920489ca2b5937696c31910160405180910390a3505050565b6001600160a01b03831661147c5760405162461bcd60e51b815260206004820152602360248201527f455243313135353a206275726e2066726f6d20746865207a65726f206164647260448201526265737360e81b606482015260840161056b565b6000611486611078565b9050600061149384611878565b905060006114a084611878565b60408051602080820183526000918290528882528181528282206001600160a01b038b16835290522054909150848110156115295760405162461bcd60e51b8152602060048201526024808201527f455243313135353a206275726e20616d6f756e7420657863656564732062616c604482015263616e636560e01b606482015260840161056b565b6000868152602081815260408083206001600160a01b038b81168086529184528285208a8703905582518b81529384018a90529092908816917fc3d58168c5ae7397731d063d5bbf3d657854427343f4c083240f7aacaa2d0f62910160405180910390a460408051602081019091526000905261106f565b606060006115b0836002612870565b6115bb9060026125ba565b6001600160401b038111156115d2576115d2611c10565b6040519080825280601f01601f1916602001820160405280156115fc576020820181803683370190505b509050600360fc1b8160008151811061161757611617612575565b60200101906001600160f81b031916908160001a905350600f60fb1b8160018151811061164657611646612575565b60200101906001600160f81b031916908160001a905350600061166a846002612870565b6116759060016125ba565b90505b60018111156116ed576f181899199a1a9b1b9c1cb0b131b232b360811b85600f16601081106116a9576116a9612575565b1a60f81b8282815181106116bf576116bf612575565b60200101906001600160f81b031916908160001a90535060049490941c936116e681612887565b9050611678565b50831561173c5760405162461bcd60e51b815260206004820181905260248201527f537472696e67733a20686578206c656e67746820696e73756666696369656e74604482015260640161056b565b9392505050565b6001600160a01b0384166117695760405162461bcd60e51b815260040161056b906127bc565b6000611773611078565b9050600061178085611878565b9050600061178d85611878565b90506000868152602081815260408083206001600160a01b038c168452909152902054858110156117d05760405162461bcd60e51b815260040161056b90612801565b6000878152602081815260408083206001600160a01b038d8116855292528083208985039055908a1682528120805488929061180d9084906125ba565b909155505060408051888152602081018890526001600160a01b03808b16928c821692918816917fc3d58168c5ae7397731d063d5bbf3d657854427343f4c083240f7aacaa2d0f62910160405180910390a461186d848a8a8a8a8a6118c3565b505050505050505050565b604080516001808252818301909252606091600091906020808301908036833701905050905082816000815181106118b2576118b2612575565b602090810291909101015292915050565b6001600160a01b0384163b156112675760405163f23a6e6160e01b81526001600160a01b0385169063f23a6e6190611907908990899088908890889060040161289e565b6020604051808303816000875af1925050508015611942575060408051601f3d908101601f1916820190925261193f918101906128e3565b60015b6119ee5761194e612900565b806308c379a003611987575061196261291b565b8061196d5750611989565b8060405162461bcd60e51b815260040161056b9190611bfd565b505b60405162461bcd60e51b815260206004820152603460248201527f455243313135353a207472616e7366657220746f206e6f6e2d455243313135356044820152732932b1b2b4bb32b91034b6b83632b6b2b73a32b960611b606482015260840161056b565b6001600160e01b0319811663f23a6e6160e01b1461106f5760405162461bcd60e51b815260040161056b906129a4565b60007f00000000000000000000000000000000000000000000000000000000000000006001600160a01b03163303611a5d575060131936013560601c90565b503390565b90565b6001600160a01b0384163b156112675760405163bc197c8160e01b81526001600160a01b0385169063bc197c8190611aa990899089908890889088906004016129ec565b6020604051808303816000875af1925050508015611ae4575060408051601f3d908101601f19168201909252611ae1918101906128e3565b60015b611af05761194e612900565b6001600160e01b0319811663bc197c8160e01b1461106f5760405162461bcd60e51b815260040161056b906129a4565b6001600160a01b0381168114610a9e57600080fd5b60008060408385031215611b4857600080fd5b8235611b5381611b20565b946020939093013593505050565b6001600160e01b031981168114610a9e57600080fd5b600060208284031215611b8957600080fd5b813561173c81611b61565b600060208284031215611ba657600080fd5b5035919050565b60005b83811015611bc8578181015183820152602001611bb0565b50506000910152565b60008151808452611be9816020860160208601611bad565b601f01601f19169290920160200192915050565b60208152600061173c6020830184611bd1565b634e487b7160e01b600052604160045260246000fd5b601f8201601f191681016001600160401b0381118282101715611c4b57611c4b611c10565b6040525050565b600082601f830112611c6357600080fd5b81356001600160401b03811115611c7c57611c7c611c10565b604051611c93601f8301601f191660200182611c26565b818152846020838601011115611ca857600080fd5b816020850160208301376000918101602001919091529392505050565b600080600060608486031215611cda57600080fd5b83356001600160401b0380821115611cf157600080fd5b611cfd87838801611c52565b94506020860135915080821115611d1357600080fd5b611d1f87838801611c52565b93506040860135915080821115611d3557600080fd5b50611d4286828701611c52565b9150509250925092565b60006001600160401b03821115611d6557611d65611c10565b5060051b60200190565b600082601f830112611d8057600080fd5b81356020611d8d82611d4c565b604051611d9a8282611c26565b83815260059390931b8501820192828101915086841115611dba57600080fd5b8286015b84811015611dd55780358352918301918301611dbe565b509695505050505050565b600080600080600060a08688031215611df857600080fd5b8535611e0381611b20565b94506020860135611e1381611b20565b935060408601356001600160401b0380821115611e2f57600080fd5b611e3b89838a01611d6f565b94506060880135915080821115611e5157600080fd5b611e5d89838a01611d6f565b93506080880135915080821115611e7357600080fd5b50611e8088828901611c52565b9150509295509295909350565b80356001600160401b0381168114611ea457600080fd5b919050565b80358015158114611ea457600080fd5b600080600080600080600080610100898b031215611ed657600080fd5b611edf89611e8d565b9750611eed60208a01611e8d565b9650611efb60408a01611e8d565b9550611f0960608a01611e8d565b945060808901356001600160801b0381168114611f2557600080fd5b935060a089013560ff81168114611f3b57600080fd5b9250611f4960c08a01611ea9565b915060e08901356001600160401b03811115611f6457600080fd5b611f708b828c01611c52565b9150509295985092959890939650565b60008060408385031215611f9357600080fd5b82356001600160401b0380821115611faa57600080fd5b818501915085601f830112611fbe57600080fd5b81356020611fcb82611d4c565b604051611fd88282611c26565b83815260059390931b8501820192828101915089841115611ff857600080fd5b948201945b8386101561201f57853561201081611b20565b82529482019490820190611ffd565b9650508601359250508082111561203557600080fd5b5061204285828601611d6f565b9150509250929050565b600081518084526020808501945080840160005b8381101561207c57815187529582019590820190600101612060565b509495945050505050565b60208152600061173c602083018461204c565b600080604083850312156120ad57600080fd5b50508035926020909101359150565b6000602082840312156120ce57600080fd5b813561173c81611b20565b6000602082840312156120eb57600080fd5b81356001600160401b0381111561210157600080fd5b61210d84828501611c52565b949350505050565b6000806040838503121561212857600080fd5b823561213381611b20565b915061214160208401611ea9565b90509250929050565b60008060006060848603121561215f57600080fd5b8335925061216f60208501611ea9565b915060408401356001600160401b0381111561218a57600080fd5b611d4286828701611c52565b60008083601f8401126121a857600080fd5b5081356001600160401b038111156121bf57600080fd5b6020830191508360208285010111156121d757600080fd5b9250929050565b600080600080600080608087890312156121f757600080fd5b86356001600160401b038082111561220e57600080fd5b61221a8a838b01612196565b90985096506020890135955060408901359450606089013591508082111561224157600080fd5b5061224e89828a01612196565b979a9699509497509295939492505050565b6000806040838503121561227357600080fd5b823561227e81611b20565b9150602083013561228e81611b20565b809150509250929050565b600080600080600060a086880312156122b157600080fd5b85356122bc81611b20565b945060208601356122cc81611b20565b9350604086013592506060860135915060808601356001600160401b038111156122f557600080fd5b611e8088828901611c52565b60008060006040848603121561231657600080fd5b83356001600160401b038082111561232d57600080fd5b61233987838801611c52565b9450602086013591508082111561234f57600080fd5b5061235c86828701612196565b9497909650939450505050565b600181811c9082168061237d57607f821691505b60208210810361239d57634e487b7160e01b600052602260045260246000fd5b50919050565b600081546123b081612369565b600182811680156123c857600181146123dd5761240c565b60ff198416875282151583028701945061240c565b8560005260208060002060005b858110156124035781548a8201529084019082016123ea565b50505082870194505b5050505092915050565b600061242282856123a3565b8351612432818360208801611bad565b01949350505050565b6000825161244d818460208701611bad565b9190910192915050565b600061173c82846123a3565b60008060006060848603121561247857600080fd5b8351925060208401519150604084015161249181611b20565b809150509250925092565b6020808252602e908201527f455243313135353a2063616c6c6572206973206e6f7420746f6b656e206f776e60408201526d195c881bdc88185c1c1c9bdd995960921b606082015260800190565b60006001600160401b0360c01b808b60c01b168352808a60c01b166008840152808960c01b166010840152808860c01b166018840152506001600160801b03198660801b16602083015260ff60f81b8560f81b16603083015283151560f81b60318301528251612561816032850160208701611bad565b919091016032019998505050505050505050565b634e487b7160e01b600052603260045260246000fd5b634e487b7160e01b600052601160045260246000fd5b6000600182016125b3576125b361258b565b5060010190565b808201808211156105975761059761258b565b8183823760009101908152919050565b6040815260006125f06040830185611bd1565b82810360208401526126028185611bd1565b95945050505050565b60006020828403121561261d57600080fd5b5051919050565b81835281816020850137506000828201602090810191909152601f909101601f19169091010190565b88815287602082015260c06040820152600061266c60c0830189611bd1565b828103606084015261267f81888a612624565b90508281036080840152612694818688612624565b905082810360a08401526126a88185611bd1565b9b9a5050505050505050505050565b601f8211156103ed57600081815260208120601f850160051c810160208610156126de5750805b601f850160051c820191505b81811015611267578281556001016126ea565b6001600160401b0383111561271457612714611c10565b612728836127228354612369565b836126b7565b6000601f84116001811461275c57600085156127445750838201355b600019600387901b1c1916600186901b1783556107ca565b600083815260209020601f19861690835b8281101561278d578685013582556020948501946001909201910161276d565b50868210156127aa5760001960f88860031b161c19848701351681555b505060018560011b0183555050505050565b60208082526025908201527f455243313135353a207472616e7366657220746f20746865207a65726f206164604082015264647265737360d81b606082015260800190565b6020808252602a908201527f455243313135353a20696e73756666696369656e742062616c616e636520666f60408201526939103a3930b739b332b960b11b606082015260800190565b60408152600061285e604083018561204c565b8281036020840152612602818561204c565b80820281158282048414176105975761059761258b565b6000816128965761289661258b565b506000190190565b6001600160a01b03868116825285166020820152604081018490526060810183905260a0608082018190526000906128d890830184611bd1565b979650505050505050565b6000602082840312156128f557600080fd5b815161173c81611b61565b600060033d1115611a625760046000803e5060005160e01c90565b600060443d10156129295790565b6040516003193d81016004833e81513d6001600160401b03816024840111818411171561295857505050505090565b82850191508151818111156129705750505050505090565b843d870101602082850101111561298a5750505050505090565b61299960208286010187611c26565b509095945050505050565b60208082526028908201527f455243313135353a204552433131353552656365697665722072656a656374656040820152676420746f6b656e7360c01b606082015260800190565b6001600160a01b0386811682528516602082015260a060408201819052600090612a189083018661204c565b8281036060840152612a2a818661204c565b90508281036080840152612a3e8185611bd1565b9897505050505050505056fea2646970667358221220ce4de34684c701e1a20598919304cb4af773db264a2eaec9d2cf89df524147f764736f6c63430008130033",
    "linkReferences": {}
  },
  "methodIdentifiers": {
    "balanceOf(address,uint256)": "00fdd58e",
    "balanceOfBatch(address[],uint256[])": "4e1273f4",
    "baseUri()": "9abc8320",
    "chains(string)": "8a39f0f7",
    "crossChainTransfer(string,uint256,uint256,bytes)": "dd9b0a27",
    "gatewayContract()": "eb0cde1d",
    "getRequestMetadata(uint64,uint64,uint64,uint64,uint128,uint8,bool,bytes)": "37bf9c41",
    "iAck(uint256,bool,bytes)": "a4e21288",
    "iReceive(string,bytes,string)": "1aa6485a",
    "isApprovedForAll(address,address)": "e985e9c5",
    "isTrustedForwarder(address)": "572b6c05",
    "mint(uint256)": "a0712d68",
    "mintMore(uint256,uint256)": "4f7c055e",
    "owner()": "8da5cb5b",
    "renounceOwnership()": "715018a6",
    "safeBatchTransferFrom(address,address,uint256[],uint256[],bytes)": "2eb2c2d6",
    "safeTransferFrom(address,address,uint256,uint256,bytes)": "f242432a",
    "setApprovalForAll(address,bool)": "a22cb465",
    "setChain(string,string)": "f567ad9d",
    "setDappMetadata(string)": "ef15cbda",
    "setGateway(address)": "90646b4a",
    "supportsInterface(bytes4)": "01ffc9a7",
    "transferOwnership(address)": "f2fde38b",
    "uri(uint256)": "0e89341c",
    "utilCount()": "baacbe9b"
  },
  "id": 66
}