{
  "abi": [
    {
      "inputs": [
        {
          "internalType": "uint64",
          "name": "cumulativePower",
          "type": "uint64"
        },
        {
          "internalType": "uint64",
          "name": "powerThreshold",
          "type": "uint64"
        }
      ],
      "name": "InsufficientPower",
      "type": "error"
    },
    {
      "inputs": [
        {
          "internalType": "uint256",
          "name": "newNonce",
          "type": "uint256"
        },
        {
          "internalType": "uint256",
          "name": "currentNonce",
          "type": "uint256"
        }
      ],
      "name": "InvalidValsetNonce",
      "type": "error"
    },
    {
      "inputs": [],
      "name": "MalformedNewValidatorSet",
      "type": "error"
    },
    {
      "inputs": [
        {
          "components": [
            {
              "internalType": "address[]",
              "name": "validators",
              "type": "address[]"
            },
            {
              "internalType": "uint64[]",
              "name": "powers",
              "type": "uint64[]"
            },
            {
              "internalType": "uint256",
              "name": "valsetNonce",
              "type": "uint256"
            }
          ],
          "internalType": "struct Utils1.ValsetArgs",
          "name": "_newValset",
          "type": "tuple"
        },
        {
          "components": [
            {
              "internalType": "address[]",
              "name": "validators",
              "type": "address[]"
            },
            {
              "internalType": "uint64[]",
              "name": "powers",
              "type": "uint64[]"
            },
            {
              "internalType": "uint256",
              "name": "valsetNonce",
              "type": "uint256"
            }
          ],
          "internalType": "struct Utils1.ValsetArgs",
          "name": "_currentValset",
          "type": "tuple"
        }
      ],
      "name": "updateValsetChecks",
      "outputs": [],
      "stateMutability": "pure",
      "type": "function"
    },
    {
      "inputs": [
        {
          "components": [
            {
              "internalType": "address[]",
              "name": "validators",
              "type": "address[]"
            },
            {
              "internalType": "uint64[]",
              "name": "powers",
              "type": "uint64[]"
            },
            {
              "internalType": "uint256",
              "name": "valsetNonce",
              "type": "uint256"
            }
          ],
          "internalType": "struct Utils1.ValsetArgs",
          "name": "_newValset",
          "type": "tuple"
        }
      ],
      "name": "validateValsetPower",
      "outputs": [],
      "stateMutability": "pure",
      "type": "function"
    }
  ],
  "bytecode": {
    "object": "0x61042661003a600b82828239805160001a60731461002d57634e487b7160e01b600052600060045260246000fd5b30600052607381538281f3fe73000000000000000000000000000000000000000030146080604052600436106100405760003560e01c8063227a9d9e146100455780634fea8b2c1461005a575b600080fd5b610058610053366004610239565b61006d565b005b61005861006836600461029d565b610149565b80604001358260400135116100a9576040805163e0e8edf360e01b81528184013560048201529082013560248201526044015b60405180910390fd5b6100ba6040820135620f42406102f0565b826040013511156100ed576040805163e0e8edf360e01b81528184013560048201529082013560248201526044016100a0565b6100fa6020830183610309565b90506101068380610309565b905014158061011e575061011a8280610309565b1590505b1561013c5760405163c01ba0ab60e01b815260040160405180910390fd5b61014582610149565b5050565b6000805b61015a6020840184610309565b90508167ffffffffffffffff1610156101dc5761017a6020840184610309565b8267ffffffffffffffff168181106101945761019461035a565b90506020020160208101906101a99190610370565b6101b390836103a1565b915063a666666667ffffffffffffffff8316116101dc57806101d4816103c9565b91505061014d565b5063a666666667ffffffffffffffff8216116101455760405163fc86a67160e01b815267ffffffffffffffff8216600482015263a666666660248201526044016100a0565b60006060828403121561023357600080fd5b50919050565b6000806040838503121561024c57600080fd5b823567ffffffffffffffff8082111561026457600080fd5b61027086838701610221565b9350602085013591508082111561028657600080fd5b5061029385828601610221565b9150509250929050565b6000602082840312156102af57600080fd5b813567ffffffffffffffff8111156102c657600080fd5b6102d284828501610221565b949350505050565b634e487b7160e01b600052601160045260246000fd5b80820180821115610303576103036102da565b92915050565b6000808335601e1984360301811261032057600080fd5b83018035915067ffffffffffffffff82111561033b57600080fd5b6020019150600581901b360382131561035357600080fd5b9250929050565b634e487b7160e01b600052603260045260246000fd5b60006020828403121561038257600080fd5b813567ffffffffffffffff8116811461039a57600080fd5b9392505050565b67ffffffffffffffff8181168382160190808211156103c2576103c26102da565b5092915050565b600067ffffffffffffffff8083168181036103e6576103e66102da565b600101939250505056fea2646970667358221220f477db3e1faa71c15180e92b2ecdfca4dc1568c9ca80edafe3a390251850f3bf64736f6c63430008130033",
    "linkReferences": {}
  },
  "methodIdentifiers": {
    "updateValsetChecks(Utils1.ValsetArgs,Utils1.ValsetArgs)": "227a9d9e",
    "validateValsetPower(Utils1.ValsetArgs)": "4fea8b2c"
  },
  "id": 80
}